:020000040800F2
:10000000900C002049020008B13A0008273400088B
:10001000AD3A000825170008FD4600080000000062
:10002000000000000000000000000000653C000827
:100030001718000800000000B33A0008673C0008E9
:1000400063020008630200086302000863020008FC
:1000500063020008630200086302000863020008EC
:100060006302000863020008191800086302000810
:1000700063020008630200086302000863020008CC
:1000800063020008630200086302000863020008BC
:1000900063020008630200086302000823180008D6
:1000A000630200086302000863020008630200089C
:1000B000893D00086302000863020008630200082B
:1000C000630200086302000863020008630200087C
:1000D00063020008A544000863020008894500087F
:1000E000630200086302000863020008630200085C
:1000F000630200086302000863020008630200084C
:10010000630200086302000863020008630200083B
:10011000630200086302000863020008630200082B
:10012000630200086302000863020008630200081B
:10013000630200086302000863020008630200080B
:1001400063020008630200086302000863020008FB
:10015000630200086302000829170008AD46000882
:1001600063020008630200086302000863020008DB
:100170006302000863020008630200080000000038
:10018000630200086302000800F002F800F04CF877
:100190000AA090E8000C82448344AAF10107DA45E2
:1001A00001D100F041F8AFF2090EBAE80F0013F0E8
:1001B000010F18BFFB1A43F0010318474C630000FE
:1001C0006C630000103A24BF78C878C1FAD852078F
:1001D00024BF30C830C144BF04680C6070470000C1
:1001E0000023002400250026103A28BF78C1FBD840
:1001F000520728BF30C148BF0B607047662906F020
:100200002681642900F00081002070471FB506F0A8
:1002100014F900F0E5FB04000020002105F0DEFBEE
:10022000E0601FBD10B510BD00F0DAFC1146FFF70D
:10023000EDFF04F00DFC00F0F8FC03B4FFF7F2FF53
:1002400003BC00F03BFD0000094880470948004717
:10025000FEE7FEE7FEE7FEE7FEE7FEE7FEE7FEE776
:10026000FEE7FEE704480549054A064B70470000D3
:10027000253D00088901000890060020900C002010
:10028000900800209008002053EA020C00F06980DA
:100290002DE9F04B4FF00006002B1FBFB3FA83F59A
:1002A00003FA05F424FA05F65E4012BF1643B2FACB
:1002B00082F502FA05F4C5F120051EBF22FA05FCFD
:1002C00044EA0C04203556EA044C4FEA144418BFA3
:1002D000641C4FF000084FF00009904271EB030CD2
:1002E00039D3002919BFB1FA81F701FA07F6B0FA3C
:1002F00080F700FA07F6C7F120071EBF20FA07FCB7
:1003000046EA0C062037B6FBF4FCA7EB0507103FC6
:1003100007F01F0BCBF120060CFA0BFB2CFA06F6AC
:1003200044BFB3460026202FA4BF5E464FF0000B0B
:100330005BEA060C08BF4FF0010B19EB0B09ABFB96
:10034000027C48EB0608C01B06FB02CC0BFB03CC6F
:1003500071EB0C01C1E70B46024641464846BDE839
:10036000F08B13B54FF000004FF00001AFF30080A9
:10037000BDE81C40704700000FB41CB5074B06AA2F
:100380007B4469460090059800F011FB0020694607
:1003900000F020FB1CBC5DF814FB000051060000BF
:1003A0002DE9F0410E460446002020622046E16817
:1003B000884730B3252805D0D4E901219047206A29
:1003C000401CF2E7E168204600278847050018D066
:1003D000A5F14100192802D820354FF400673246B4
:1003E000294620462760FFF709FF40B1012804D0C5
:1003F000F61D26F007060836D8E7361DD6E728464C
:10040000DAE7206ABDE8F0812DE9F04106460024D4
:1004100010687529314616A510D0AFF3008000286A
:1004200002DA404213A507E031688A0701D512A518
:1004300002E0490704D511A5012401E0AFF30080D3
:1004400000210A2206F1240709E0B0FBF2FCB0FB10
:10045000F2F302FB1C00303078541846491C002887
:10046000F3D123462A463046BDE8F04100F032B8C9
:10047000000000002D0000002B0000002000000004
:100480004FF0000200B5134694469646203922BF2D
:10049000A0E80C50A0E80C50B1F12001BFF4F7AF78
:1004A000090728BFA0E80C5048BF0CC05DF804EB5A
:1004B000890028BF40F8042B08BF704748BF20F8C8
:1004C000022B11F0804F18BF00F8012B70477047C6
:1004D000704770472DE9F0470D469946924604460D
:1004E00000F124080168880604D5E06921F01001B4
:1004F000216000E00120A84201DD471B00E0002749
:10050000A1697A1902EB0900081AA0612078C006D7
:1005100002D42046AFF30080002608E0D4E9012190
:100520001AF806009047206A401C761C20624E454F
:10053000F4DB2078C0060AD52046AFF3008006E041
:10054000D4E9012130209047206A401C2062381EE7
:10055000A7F10107F4DC07E0D4E9012118F8050050
:100560009047206A401C2062281EA5F10105F3DC9B
:100570002046AFF300802078000602D50220BDE8B7
:10058000F0870120FBE770472DE9FF4F0C461E4620
:100590004FF0FF378BB0D2E90001DDF860800A90A0
:1005A0008A46C1F30A5505B93D46002108464FF079
:1005B0000000BAF1000F00F4400005DA00EB800003
:1005C0004FF4400101EA50004FEA9059B9F1010F90
:1005D00000DDB9460A9850EA4A000ED044F61050A1
:1005E000A5F2FF3545432F14B8F1000F1ED0754218
:1005F000291E1EDDC9F100021CE0B8F1010F4FF009
:10060000000001D0302103E0F24305E02154401CFA
:10061000B042FBDB30460022002121540B99C1F887
:100620000880C1E900200FB0BDE8F08FBD1B6D1C34
:10063000DEE74A4600DA694206A800F05BFA06AB3C
:1006400093E8070003AB83E8070050460A9900F0DF
:100650003CFB8DE80700A0F500501F380090039880
:10066000002D0ADD42F21F014A460844002303A977
:100670000390684600F0A5FD09E0A0F500504A4649
:100680001F38002303A90390684600F0AFFD8DE8F2
:1006900007000004000C03D04FF0FF30410800E0D9
:1006A0001046B8F1000F03D00022009215461EE05C
:1006B000751E05D400F098F9303262556D1EF9D5DB
:1006C000B3460122084302D000227F1C04E02078B8
:1006D000302801D100227F1E002A099784D01DE016
:1006E000112D07DA00F080F9303262556D1C50EAA6
:1006F0000102F5D1084302D00098C8B10EE00021F4
:10070000681E05E0235C625C63542254401E491C51
:100710008142F7DBAB46A81B401E0990002004F87D
:100720000B000B98099AC0F80880C0E9002B7AE703
:1007300011264FF0000857E72DE9F04F8846044690
:10074000D21D22F0070191B0D1E90001CDE90A01E3
:1007500003F0D6FF02460B98C00F01D02D2007E012
:100760002068810701D52B2002E0202101EAC0008A
:10077000032A099001D0072A05DB0346414620469B
:1007800000F078F90BE12078800601D5E06900E0FF
:100790000620B8F1650F814606D0B8F1660F18D073
:1007A000B8F1670F70D131E00020B9F1110F00905E
:1007B00001DB112301E009F101030AAA01A90CA838
:1007C000FFF7E2FEDDE90C70002609F10105834622
:1007D00047E001204B4600904FF000470AAA01A9CC
:1007E0000CA8FFF7D1FEDDE90DB00C995D4600269F
:1007F00010B909F101000D18B9EB050003D4C0F1DF
:10080000FF3609F10105A5EB09002BE0B9F1010F55
:1008100001DA4FF001090020B9F1110F00904846AC
:1008200001DD112300E003460AAA01A90CA8FFF785
:10083000ABFEDDE90C704D460026834620780007AC
:100840000AD4AB4500DA5D4601A8012D04DD41194B
:1008500011F8011C302907D04F4502DA17F1040FB7
:1008600004DA012082460FE06D1EEEE7002F02DC65
:10087000ED1B3E4403E0781CA84200DD7D1CB81B44
:1008800000F1010A4FF000472078000703D4AA4581
:1008900001DB4FF0FF3A0021B7F1004F0DF14308A3
:1008A0008DF8431024D002202B23002F01DA7F4241
:1008B0002D230A21021EA0F1010000DC5FB197FB8D
:1008C000F1FC97FBF1F201FB1C7C17460CF1300C9C
:1008D00008F801CDEEE7A8F10100037021880905B1
:1008E00001D5452100E06521A0F1010800F8011CB7
:1008F00009980FA9A1EB0807FF1D00B101204119BC
:1009000001EBEA70A1693844081A401EA061207802
:10091000C00602D42046AFF30080099828B1D4E97C
:1009200001219047206A401C20622078C00622D511
:100930002046AFF300801EE0002E04DBB34502DD4D
:1009400001A8805D00E03020D4E901219047206AB1
:10095000401C2062761CAAF101005FEA000A0AD15D
:1009600000F03EF8C0680168405CD4E9012190477E
:10097000206A401C2062281EA5F10105DCDC07E08E
:10098000D4E9012118F8010B9047206A401C20622D
:10099000381EA7F10107F3DC2046AFF300800320E7
:1009A00011B041E601694A1C02610878704700B540
:1009B0008FB0CDE901310021059105497944CDE998
:1009C000031011466846FFF7EBFC0FB000BD0000B6
:1009D000E5FFFFFF0A6802F8010B0A60704700009C
:1009E000004870475006002030B5B0F10A024FEAC7
:1009F000900E71F100034EEA817EB0EB0E0061EBC8
:100A000091014FEA101E4EEA017E10EB0E0041EB01
:100A100011114FEA102E4EEA016E10EB0E0041EB61
:100A200011214FEA104E4EEA014E10EB0E0041EB41
:100A30001141401841F100014FEAD00040EA4170F5
:100A40004FEAD10110EB80054FEA810444EA90742B
:100A500044EB01046D1944EB0404521BA3414FF015
:100A6000000348BF0A3200D530BD401C41F10001EF
:100A700030BD00002DE9F0411F4604460326016801
:100A8000072A01F4006004DB08B116A505E016A5ED
:100A900003E008B115A500E015A521F010002060C5
:100AA000A069C01EA0610FB1401EA0612046AFF337
:100AB00000804FB1D4E9012138469047206A401C9C
:100AC0002062C01C206206E0206AFAE7D4E9012116
:100AD00015F8010B9047761EF8D22046AFF3008040
:100AE000BDE8F0814E414E006E616E00494E4600F9
:100AF000696E66002DE9F047814616468AB0354892
:100B000078440DC88DE80D0032487844801C03AC51
:100B10000DC884E80D0041F69B300844372190FB56
:100B2000F1F290FBF1F5A5F1800501FB12041B3CED
:100B300002D56442012000E00020DFF898A0804642
:100B40000027FA44AAF1BE0A0EE0E0070AD03246B6
:100B5000684607EB470101230AEB810100F046FBE1
:100B60008DE8070064107F1C002CEED1194F7F44E4
:100B7000AE3F19E0E80715D007EB04100DF1180A95
:100B800090E80E008AE80E00C068F04201D1981982
:100B900008903246012306A903A800F027FB03AB07
:100BA00083E807006D10641C002DE3D14FF00103B2
:100BB00032466946B8F1000F03A802D000F001FBED
:100BC00001E000F013FBC9E90001C9F808200AB0F0
:100BD000BDE8F087EC59000000487047300600205F
:100BE0007546FFF7F9FFAE4605006946534620F00B
:100BF0000700854618B020B5FFF734FBBDE820405C
:100C00004FF000064FF000074FF000084FF0000BC8
:100C100021F00701AC46ACE8C009ACE8C009ACE87B
:100C2000C009ACE8C0098D46704710B50446AFF363
:100C300000802046BDE81040FFF7FFBA4FF0013CAE
:100C400050F8042B51F8043B9A4221D1A2EB0C033B
:100C5000934313EACC1317D150F8042B51F8043BFB
:100C60009A4215D1A2EB0C03934313EACC130BD198
:100C700050F8042B51F8043B9A4209D1A2EB0C0323
:100C8000934313EACC13DBD04FF00000704700BF52
:100C9000D01A01BAB1FA81F101F0180122FA01F07B
:100CA000CB40C1F12001DBB2C0B2C01A2CFA01F373
:100CB000D11A914311EAC311E6D1704701491820B6
:100CC000ABBEFEE72600020070475FEA400C08BF9B
:100CD00091F0000F4FEA8C234FEAC12243EA5151B1
:100CE0004FEA1C5018BF00F5F0404FEA300018BF23
:100CF00041F000415FEA6C5C00F02980BCF1FF3FED
:100D000008BF40F080407047130C06BF12044FF03C
:100D1000100C4FF0000C130E04BF12020CF1080C63
:100D2000130F04BF12010CF1040C930F04BF9200C7
:100D30000CF1020CD30F04BF52000CF1010C114650
:100D40004FF00002A0F11F00A0EB0C00704711F063
:100D5000004F08BF704731F000413FF4D5AF0B0C96
:100D600006BF09044FF0100C4FF0000C0B0E04BF2F
:100D700009020CF1080C0B0F04BF09010CF1040C63
:100D80008B0F04BF89000CF1020CCB0F04BF49008C
:100D90000CF1010CCCF12003A0EB0C0022FA03F3C0
:100DA00002FA0CF241EA030100F10100704720F061
:100DB0007F4C80EA030023F07F47ACEB070303F589
:100DC0007C5300F0004003F1FF032DE980494FEA16
:100DD000154B09B44FEA144325EA0B4E24EA0348A5
:100DE0000FF2042606EB132749083E785FEA320229
:100DF00003FB0667C7F5000707FB06F64FEA543703
:100E00004FEAD64606F1020607FB066CCCF1005C01
:100E10004FEA1C472CEA074C07FB06F40CFB06F5CF
:100E200004EB15464FEA961634BF00204FF0004001
:100E30004FEAD13706FB07FC4FEA1C4C0CFB0BF7C3
:100E4000D21B03FB0CF761EB07010CFB0EF7B0EBB9
:100E5000074072EB17420CFB08F734BFA2EB0742C6
:100E6000B2EB074261EB17414FEA0C444FEA91079E
:100E700006FB07FC4FEA1C4C0CFB0BF7B0EBC74022
:100E800072EB573203FB0CF734BFA2EBC742B2EB55
:100E9000C74261EB57310CFB0EF7B0EBC70072EBAA
:100EA00057720CFB08F734BFA2EBC702B2EBC702C4
:100EB00061EB5771039F4FEA816141EA921104EBA4
:100EC000CC044FEAD1374FEA826206FB07FC42EAC4
:100ED00090124FEA80604FEA1C4C0CFB0BF7D21BC0
:100EE00003FB0CF761EB07010CFB0EF7B0EB0740BF
:100EF00072EB17420CFB08F734BFA2EB0742B2EBD0
:100F0000074261EB17414FEA8C554FEA910704EB1A
:100F10009C2406FB07FC4FEA1C4C0CFB0BF7B0EBC8
:100F2000C74072EB573203FB0CF734BFA2EBC7424A
:100F3000B2EBC74261EB57310CFB0EF7B0EBC700C9
:100F400072EB57720CFB08F734BFA2EBC702B2EB8F
:100F5000C70261EB577115EB4C254FEA816141EAFD
:100F600092114FEA82624FEAD13742EA901206FBB1
:100F700007FC44F100044FEA80604FEA1C4C0CFB74
:100F80000BF7D21B03FB0CF761EB07010CFB0EF711
:100F9000B0EB074072EB17420CFB08F734BFA2EB33
:100FA0000742B2EB074261EB174115EB1C154FEA04
:100FB000813141EA92414FEA823242EA90424FEA5D
:100FC00080304FEA0C7644F1000448EA03434EEACD
:100FD0000B484FF0000EB2EB080C71EB030724BF77
:100FE000624639464EEB0E0E4FF0000B0018524190
:100FF00049414BEB0B0BB2EB080C71EB03077BF198
:10100000000B24BF624639464EEB0E0E4FF0000B2C
:101010000018524149414BEB0B0BB2EB080C71EB42
:1010200003077BF1000B24BF624639464EEB0E0EE0
:1010300051EA020718BF46F0010616EB0E7655F18D
:10104000000254F1000103D5BDE88901BDE8008824
:10105000BDE88901BDE80048B619524141EB0101E4
:10106000A3F10103704780807F7E7D7C7B7A797855
:10107000777676757473727171706F6E6E6D6C6C5D
:101080006B6A6A69686867666665646463636261FF
:101090006160605F5F5E5E5D5D5C5C5B5B5A5A5980
:1010A00059585857575656555555545453535252EC
:1010B0005251515050504F4F4F4E4E4D4D4D4C4C44
:1010C0004C4B4B4B4A4A4A4949494848484747478D
:1010D00047464646454545444444444343434342CA
:1010E000424242414141002B9C4630D477002BD0F4
:1010F0001CB54FEA370703B44FF010004FF0100152
:10110000BAF1000F06D0BCF1000FDCBF40F00800C0
:1011100040F008014FF000000FBCBDE810400BF19B
:10112000010BBBF1010F08BF5FEA170722BF12F1E5
:10113000010211F101014FF0004143F1000300F001
:10114000004043EA00007047F9D35708D0E746EA69
:10115000064613F1400F4FEA16461FDD13F1200F2C
:10116000DFBF16430A46002120335B42BED0C3F1E5
:10117000200746EA064602FA07F74FEA164646EA0D
:101180000706C3F1200722FA03F201FA07F721FA52
:1011900003F14FF0000342EA0702A7E746EA02061E
:1011A00046EA06464FEA164646EA0106BCBF46EA4C
:1011B0000646360C4FF000034FF000024FF00001DE
:1011C00094E72DE9804C9A46934670B491E8380034
:1011D00007C831EA400C48BF34EA430C03D5FFF797
:1011E000E6FDFFF780FFF0BCBDE8008C2DE9804CE8
:1011F0009A46934670B491E8380007C810F0804FC3
:1012000008BF13F0804F03D100F005F8FFF76BFF24
:10121000F0BCBDE8008C20F07F4780EA030023F09B
:101220007F4C07EB0C03A3F57C5300F00040A3F1C7
:10123000FE0392F0000F00F0B38095F0000F00F075
:1012400077802DE901494FEA11404FEA144621EA1F
:10125000004800FB06FC24EA064708FB06F607FBED
:1012600008F800FB07F718EB06484CEB164C4FEA62
:10127000124B18EB07484FEA15464CEB174022EA91
:101280000B4E0BFB06FC25EA06470EFB06F607FB9A
:101290000EFE0BFB07F71EEB064E4CEB164C4FF009
:1012A00000061EEB074E4CEB174B18EB0B0840F1FA
:1012B000000018EB0E0B58EB000840F100008F1AED
:1012C0004FF000013CBFC943661B14BFB5EB040CD3
:1012D00000213CBFC943F61B4FEA17444EEA8E0E6D
:1012E00027EA04454FEA1C4704FB07622CEA074C37
:1012F00005FB07F70CFB05F604FB0CFC16EB074699
:1013000042EB174216EB0C4642EB1C421BEB060667
:1013100058EB0202414146EA9E0601D5BDE801892B
:10132000B619524141EB0101A3F10103BDE8018966
:101330004FEA14454FEA114724EA054621EA074CD3
:1013400005FB07F406FB07F70CFB06F105FB0CFC9D
:1013500011EB074144EB17444FEA124711EB0C41E4
:1013600044EB1C4422EA074C05FB07F206FB07F797
:101370000CFB06F605FB0CFC16EB074642EB17428E
:1013800016EB0C4642EB1C456A1854F1000148BFAD
:101390007047B619524141EB0101A3F101037047B7
:1013A00095F0000F37D04FEA11424FEA144721EA77
:1013B000024624EA074C02FB07F106FB07F70CFB89
:1013C00006F402FB0CFC14EB074441EB17414FEA17
:1013D000154714EB0C4441EB1C4125EA074C02FB7A
:1013E00007F506FB07F70CFB06F602FB0CFC16EBF9
:1013F000074645EB174516EB0C4645EB1C42121908
:1014000051F1000148BF7047B619524141EB01014B
:10141000A3F1010370474FEA14454FEA114724EA4C
:10142000054621EA074C05FB07F106FB07F70CFB15
:1014300006F24FF0000605FB0CFC12EB074241EBF5
:10144000174112EB0C4251EB1C4148BF70479218F8
:1014500041EB0101A3F101037047000010B5012227
:101460001021024800F0B7FC10BD0000000002404F
:1014700010B500221021024800F0ADFC10BD0000A4
:10148000000002407047000010B5012211460248DA
:1014900000F0A1FC10BD00000004024010B50022C5
:1014A0000121024800F097FC10BD0000000402403A
:1014B000704710B5044603E04FF47A7000F006F868
:1014C000201EA4F101018CB2F6D110BD70B5034607
:1014D00000BF00BF0020002200BF4FF0E02675696A
:1014E000A82603FB06F44FF0E026B16910E04FF0A8
:1014F000E026B06988420BD0884202D20E1A3244EC
:1015000002E02E1A0E4432440146A24200D300E00B
:10151000EDE700BF70BD10B50024FFF7B3FFFFF784
:10152000C7FF03F021F9044303F0B2F90443204656
:1015300010BD00002DE9FC4105460E46174600206F
:1015400000900190FFF794FF922000F0D1F806225E
:101550006946122000F0ACF8FFF780FF9DF801000B
:10156000000200B29DF8001040EA010400EE104AAB
:10157000B8EEC00A4C48D0ED000A20EE200A86EDF5
:10158000000A9DF80300000200B29DF8021040EA34
:10159000010400EE104AB8EEC00A4348D0ED000A3C
:1015A00020EE200A86ED010A9DF80500000200B237
:1015B0009DF8041040EA010400EE104AB8EEC00A9B
:1015C0003948D0ED000A20EE200A86ED020AFFF726
:1015D00065FF08226946002000F06AF8FFF754FF13
:1015E0009DF800000F2838D19DF80300000200B2DA
:1015F0009DF8021040EA010400EE104AB8EEC00A5D
:101600002A48D0ED000A20EE200A85ED000A9DF858
:101610000500000200B29DF8041040EA010400EE4B
:10162000104AB8EEC00A2148D0ED000A20EE200A88
:1016300085ED010A9DF80700000200B29DF8061032
:1016400040EA010400EE104AB8EEC00A1748D0ED97
:10165000000A20EE200A85ED020AFFF709FFA2200A
:1016600000F046F802226946222000F021F8FFF738
:10167000F5FE9DF80000C0009DF8011040EA6114DD
:10168000B4F5806F02DBA4F5006004B200EE104AEE
:10169000F8EEC00AB4EE001AB3EE070A00EE810AB3
:1016A00087ED000ABDE8FC81480000204C000020C6
:1016B00070B506460C46154646F0800000F018F856
:1016C00006E0552000F014F82070641C681EC5B2B6
:1016D000002DF6D170BD70B504460D4644F0800073
:1016E00000F006F8552000F003F8287070BD0000E7
:1016F00001B582B04FF47A70012301AA02A90090CB
:10170000024800F0ADFF9DF804000EBDB8040020B3
:1017100070B505460C462846FFF7EAFF2046FFF75E
:10172000E7FF70BD00BFFEE710B5024800F090F87B
:1017300010BD0000D8010020014608781038182399
:10174000B0FBF3F20848805CC865032A05D9086835
:101750006FF30900001D886503E008686FF3090056
:101760008865886D704700005264000801460020BB
:101770008A6A8B69CBB932B1012A0DD0022A03D013
:10178000032A10D10EE000BFCB6A03F08073B3F1DF
:10179000807F00D1012007E0CB6AB3F1C07F00D188
:1017A000012001E000E000BF34E08B69B3F5005F89
:1017B0001AD132B1012A07D0022A03D0032A11D14B
:1017C0000AE000BF01200EE0CB6A03F08073B3F1A2
:1017D000807F00D1012006E0CB6AB3F1C07F00D149
:1017E000012000E000BF15E032B1012A05D0022A35
:1017F00004D0032A0CD103E000BF00BF012008E0A1
:10180000CB6A03F08073B3F1807F00D1012000E048
:1018100000BF00BF7047704710B5102000F0C4F93A
:1018200010BD10B5202000F0BFF910BD70470000BA
:1018300005480068416A0548006840F2712250433B
:1018400001EBC00070470000380400202C0000208D
:10185000F8B50446002000908C4800684FF41651FB
:10186000B0FBF1F7A56D2E6894F85C100820884055
:10187000304098B12068006800F0040070B1206822
:10188000006820F004002168086094F85C100820CB
:101890008840A860606D40F00100606594F85C10BD
:1018A00001208840304068B12068406900F0800025
:1018B00040B194F85C1001208840A860606D40F051
:1018C0000200606594F85C1004208840304068B1E4
:1018D0002068006800F0020040B194F85C10042019
:1018E0008840A860606D40F00400606594F85C106A
:1018F00010208840304078B32068006800F008006D
:1019000050B394F85C1010208840A86020680068EC
:1019100000F4802080B12068006800F4002028B91D
:10192000206CC8B12046216C884715E0A06C98B1A6
:101930002046A16C88470FE02068006800F48070A2
:1019400028B92068006820F0080021680860206C31
:1019500010B12046216C884794F85C102020884004
:101960003040002865D02068006800F01000002892
:101970005FD094F85C1020208840A86094F835006F
:10198000052828D12068006820F01600216808602A
:101990002068406920F0800021684861206C08B907
:1019A000A06C28B12068006820F008002168086059
:1019B00094F85C103F208840A86000BF002084F8A5
:1019C000340000BF012084F83500206D10B120469E
:1019D000216D8847F8BD2068006800F4802080B140
:1019E0002068006800F4002028B9606C10B120461F
:1019F000616C88471DE0E06BD8B12046E16B8847F9
:101A000017E02068006800F4807068B920680068FA
:101A100020F010002168086000BF002084F8340026
:101A200000BF012084F83500E06B10B12046E16B67
:101A30008847606D38B3606D00F00100F0B105209B
:101A400084F835002068006820F0010021680860F3
:101A500000BF0098401C0090B84200D905E0206803
:101A6000006800F001000028F3D100BF00BF002093
:101A700084F8340000BF012084F83500E06C10B118
:101A80002046E16C884700BFA4E70000400000202A
:101A90002DE9F0410446002500F0A4F9074614B9E9
:101AA0000120BDE8F081606A00B100BF00BF0020E6
:101AB00084F8340000BF022084F8350020680068F4
:101AC00020F00100216808600AE000F08BF9C01BDB
:101AD000052805D920206065032084F83500E0E75B
:101AE0002068006800F001000028EED12068056839
:101AF00021480540D4E901010843E1680843216910
:101B0000084361690843A1690843E1690843216A00
:101B100008430543606A042803D1D4E90B01084354
:101B20000543206805602068456925F00705606A5F
:101B30000543606A04280DD1A06A0543E06A48B1F4
:101B40002046FFF713FE28B140206065012084F88D
:101B50003500A6E7206845612046FFF7EDFD064603
:101B600094F85C103F208840B06000206065012040
:101B700084F83500002094E73F8010F070B50446EB
:101B800000F030F906462546681C10B1044800787C
:101B9000054400BF00F026F9801BA842FAD370BDAF
:101BA0003C0000207047000010B50446044800685F
:101BB000204020B1024804602046FFF7F3FF10BD2B
:101BC000143C0140F8B502460B46002500240020D5
:101BD0000021DCE0012606FA01F51E6806EA05048C
:101BE000AC4273D15E68022E02D05E68122E13D111
:101BF000CF0802F1200656F827004E07F70E0F26F1
:101C0000BE40B0434F07FF0E1E69BE403043CF08B1
:101C100002F1200646F8270010684F000326BE4058
:101C2000B0431E7906F003064F00BE4030431060FB
:101C30005E68012E08D05E68022E05D05E68112E07
:101C400002D05E68122E13D190684F000326BE406A
:101C5000B0434F00DE68BE403043906050680126BC
:101C60008E40B0431E79C6F300168E40304350605C
:101C7000D0684F000326BE40B0434F009E68BE4070
:101C80003043D0605E6806F08056B6F1805F7DD14B
:101C900000BF00260096404E366846F480463E4F10
:101CA0003E603E46366806F48046009600BF00BFA0
:101CB0003A4E8F0856F827008E07370F0F26BE4082
:101CC000B043374EB24202D1002624E05EE0354EEA
:101CD000B24201D101261EE0334EB24201D10226AA
:101CE00019E0324EB24201D1032614E0304EB24226
:101CF00001D104260FE02F4EB24201D105260AE0A1
:101D00002D4EB24201D1062605E02C4EB24201D141
:101D1000072600E008268F073F0FBE4030431F4EC6
:101D20008F0846F82700264E3068A0435E6806F408
:101D30008036B6F5803F00D12043214E3060361DFD
:101D40003068A0435E6806F40036B6F5003F00D167
:101D500020431B4E361D3060361D3068A0435E6840
:101D600006F48016B6F5801F00D12043144E0836C5
:101D70003060361D3068A0435E6806F40016B6F584
:101D8000001F00D120430E4E0C363060491C102934
:101D9000FFF420AFF8BD000044380240083801408D
:101DA000000002400004024000080240000C024013
:101DB000001002400014024000180240001C0240C3
:101DC000003C014042690A408A4202D10A04826111
:101DD00000E0816170470AB1816101E00B04836119
:101DE0007047000001480068704700003400002080
:101DF00003480068034909780844014908607047AE
:101E0000340000203C00002010B50D48006840F46C
:101E100000700B4908600846006840F48060086064
:101E20000846006840F480700860032000F0A2F8C3
:101E3000002000F007F800F02BF8002010BD000093
:101E4000003C024070B504460E4800784FF47A71A9
:101E5000B1FBF0F00C490968B1FBF0F5284600F041
:101E600014FD08B1012070BD102C07D200222146BC
:101E7000501E00F041F80548046001E00120F2E73F
:101E80000020F0E73C000020400000203800002047
:101E900008B500BF002000900E48006840F4804064
:101EA0000C4908600846006800F48040009000BFBC
:101EB00000BF00BF00200090081F006840F0805065
:101EC000091F08600846006800F08050009000BFBD
:101ED00000BF08BD4438024001460846002809DB1F
:101EE00000F01F0301229A4043099B0003F1E02305
:101EF000C3F8002100BF70472DE9F05F80460D4612
:101F00001646002702F014FC074639462A46334697
:101F100001F00700C0F1070ABAF1040F02D94FF02F
:101F2000040A01E0C0F1070AD14600F1040ABAF13F
:101F3000070F02D24FF0000A01E0A0F1030AD446D5
:101F40004FF0010A0AFA09FAAAF1010A0AEA020A9A
:101F50000AFA0CFA4FF0010B0BFA0CFBABF1010B78
:101F60000BEA030B4AEA0B042146404602F0E8FB69
:101F7000BDE8F09F00BF00F00702064B19684FF65E
:101F8000FF031940044B0B4343EA0221014B196044
:101F900000BF70470CED00E00000FA0570B5044684
:101FA0000D460CB9012070BD5848006800F00F00C4
:101FB000A84209D255490D700846006800F00F008C
:101FC000A84201D00120EEE7207800F002000228AC
:101FD0001DD1207800F00400042805D14C48006889
:101FE00040F4E0504A490860207800F008000828D2
:101FF00005D14748006840F46040454908604448BE
:10200000006820F0F000A16808434149086020788A
:1020100000F00100A8B36068012807D13C480838E7
:102020000068C0F34040B8B90120BCE760680228EE
:1020300002D06068032807D1354808380068C0F32B
:10204000406048B90120AEE7314808380068C0F365
:10205000400008B90120A6E72D48006820F00300E1
:10206000616808432A490860FFF7BCFE064609E09C
:10207000FFF7B8FE801B41F28831884202D9032065
:1020800091E707E02248006800F00C006168B0EBBF
:10209000810FEDD11D48006800F00F00A84209D95A
:1020A0001A490D700846006800F00F00A84201D0E0
:1020B000012078E7207800F00400042807D11448B4
:1020C000006820F4E050E168084311490860207876
:1020D00000F00800082808D10D48006820F460408E
:1020E000216940EAC1000A49086000F03DF808494A
:1020F0000968C1F30311074A515CC84006490860EA
:102100000020FFF79FFE00204DE70000003C02404A
:10211000083802405A640008400000200148006866
:10212000704700004000002000B5FFF7F7FF0449AA
:102130000968C1F38221034A515CC84000BD000018
:10214000083802406A64000800B5FFF7E7FF044959
:102150000968C1F34231034A515CC84000BD000028
:10216000083802406A6400082DE9F0470024002581
:102170000026A1462548006800F00C0020B1042884
:1021800005D008283AD105E0DFF8849039E0DFF87F
:10219000849036E01D48001F006800F03F041B4893
:1021A000001F006800F4800078B11A481749091F21
:1021B0000968C1F38811A0FB017001462246002383
:1021C0003846FEF761F805460EE011480F49091F31
:1021D0000968C1F38811A0FB017001462246002363
:1021E0003846FEF751F805460848001F0068C0F35E
:1021F0000140401C4600B5FBF6F902E0DFF8109004
:1022000000BF00BF4846BDE8F08700000838024024
:102210000024F400001BB700F8B504460CB90120F7
:10222000F8BD207800F00100002874D0F94800685B
:1022300000F00C0004280DD0F648006800F00C00F7
:10224000082813D1F348001F006800F48000B0F59F
:10225000800F0BD1EF4808380068C0F340400028D9
:1022600059D06068002856D10120D9E700BF6068C6
:10227000B0F5803F08D1E7480838006840F4803066
:10228000E449083908601EE06068B0F5A02F0DD160
:10229000E0480838006840F48020DE4908390860CA
:1022A0000846006840F4803008600CE0D9480838DF
:1022B000006820F48030D749083908600846006873
:1022C00020F48020086000BF606890B1FFF78AFDAD
:1022D000054606E0FFF786FD401B642801D9032070
:1022E0009EE7CC4808380068C0F340400028F1D091
:1022F00011E0FFF777FD054606E0FFF773FD401B91
:10230000642801D903208BE7C24808380068C0F36D
:1023100040400028F1D1207800F0020002285FD16F
:10232000BC48006800F00C0058B1BA48006800F0E2
:102330000C0008281CD1B748001F006800F480007A
:10234000B0B9B44808380068C0F3400020B1E06874
:10235000012801D0012063E7AE480838006820F06A
:10236000F800216940EAC100AA490839086037E04D
:10237000E06800B30120A8490860FFF733FD054677
:1023800006E0FFF72FFD401B022801D9032047E795
:10239000A04808380068C0F340000028F1D09D48EC
:1023A0000838006820F0F800216940EAC100994926
:1023B0000839086014E0002097490860FFF712FD13
:1023C000054606E0FFF70EFD401B022801D9032059
:1023D00026E7904808380068C0F340000028F1D193
:1023E000207800F0080008282CD16069A8B10120ED
:1023F0008A490860FFF7F6FC054606E0FFF7F2FCA5
:10240000401B022801D903200AE782486C3000688B
:10241000C0F340000028F1D014E000207F4908609C
:10242000FFF7E0FC054606E0FFF7DCFC401B022856
:1024300001D90320F4E677486C300068C0F340000F
:102440000028F1D1207800F00400042870D1002683
:1024500070483830006800F0805090B900BF00200C
:1024600000906C483830006840F08050694938313D
:1024700008600846006800F08050009000BF00BF70
:1024800001266748006800F48070B0B964480068AD
:1024900040F4807062490860FFF7A4FC054606E03E
:1024A000FFF7A0FC401B022801D90320B8E65C48D6
:1024B000006800F480700028F2D000BFA0680128F6
:1024C00008D154486830006840F001005149683133
:1024D00008601DE0A06805280DD14E4868300068EE
:1024E00040F004004B49683108600846006840F03D
:1024F000010008600CE047486830006820F00100E7
:102500004449683108600846006820F0040008600B
:1025100000BFA068A8B1FFF765FC054609E0FFF71A
:1025200061FC401B41F28831884202D9032077E6E2
:1025300026E0384868300068C0F340000028EED03C
:1025400013E0FFF74FFC054608E0FFF74BFC401B8C
:1025500041F28831884201D9032061E62D48683074
:102560000068C0F340000028EFD1012E07D12948B0
:102570003830006820F0805026493831086000BFAC
:10258000A069B8B32348006800F00C0008285ED0AA
:10259000A069022846D100201F490866FFF722FCE7
:1025A000054606E0FFF71EFC401B022801D9032068
:1025B00036E6184808380068C0F340600028F1D1BA
:1025C000D4E907010843616A40EA81110122A06A47
:1025D000C2EB500041EA00412C20005D41EA00605E
:1025E0000C49091F086001200B490866FFF7FAFB38
:1025F000054607E02DE0FFF7F5FB401B022801D957
:1026000003200DE6034808380068C0F34060002846
:10261000F1D01EE00838024000004742800E4742D9
:102620000070004000200C490866FFF7DBFB054600
:1026300006E0FFF7D7FB401B022801D90320EFE596
:1026400006480068C0F340600028F2D101E0012094
:10265000E6E50020E4E500000000474200380240C3
:102660002DE9FF5F0446884691461D460E9E0120D7
:1026700002900020019000BF94F85000012803D17F
:10268000022004B0BDE8F09F012084F8500000BF94
:10269000FFF7A8FB074694F851B060680390AA467C
:1026A000BBF1010F0BD00398B0F5827F04D1A06875
:1026B00010B9BBF1040F02D002200190DBE0B8F1A9
:1026C000000F03D0B9F1000F00D015B9012001901F
:1026D000D1E094F85100042802D0052084F851007C
:1026E00000206065C4F83890E587A587C4F830807D
:1026F000E586A586206460642068006800F04000DC
:10270000402805D02068006840F04000216808603B
:10271000E068B0F5006F4AD1606810B1BAF1010FFE
:1027200009D1206B00882168C860206B801C206361
:10273000E08E401EE08633E02068806800F00200F2
:10274000022810D1E08E70B1029801280BD1206BC5
:1027500000882168C860206B801C2063E08E401ECA
:10276000E086002002902068806800F0010068B1D7
:10277000E08F58B12068C068A16B0880A06B801CF6
:10278000A063E08F401EE08701200290FFF72AFB44
:10279000C01BB04204D3701C10B1032001906AE04A
:1027A000E08E0028C8D1E08F0028C5D14AE06068DB
:1027B00010B1BAF1010F09D1206B007821680873BC
:1027C000206B401C2063E08E401EE08634E02068D1
:1027D000806800F00200022810D1E08E70B10298EB
:1027E00001280BD1206B007821680873206B401CF6
:1027F0002063E08E401EE086002002902068806802
:1028000000F0010068B1E08F58B12068C068A16B8A
:102810000870A06B401CA063E08F401EE087012081
:102820000290FFF7DFFAC01BB04201D3701C00B961
:1028300016B9032001901EE0E08E0028C7D1E08F7A
:102840000028C4D13A463146204601F081F920B132
:1028500001200190202060650DE0A06850B900BF04
:10286000002000902068C068009020688068009078
:1028700000BF00BF00BF012084F8510000BF00204E
:1028800084F8500000BF0198FBE670B50446254669
:10289000681EB0F1807F01D301200FE0681E4FF069
:1028A000E02148610F214FF0FF3001F049FF002087
:1028B0004FF0E021886107200861002070BD70475B
:1028C000704710B50346002200BF93F83C00012872
:1028D00001D1022010BD012083F83C0000BF22F08E
:1028E000FF00CC6840EA040222F440708C6840EAA1
:1028F000040222F480604C6840EA040222F4006082
:102900000C6840EA040222F480500C6940EA040298
:1029100022F400504C6940EA040222F48040CC6961
:1029200040EA04021868426400BF002083F83C00BB
:1029300000BF00BFCEE710B5024600BF92F83C00D2
:10294000012801D1022010BD012082F83C0000BF07
:10295000022082F83D00106843681068846823F004
:1029600070030868034324F0800448680443106837
:10297000436010688460012082F83D0000BF0020A1
:1029800082F83C0000BF00BFDDE710B504460CB97B
:10299000012010BD94F83D0028B9002084F83C00C7
:1029A000204600F00DF8022084F83D00211D20682B
:1029B00001F0F8F9012084F83D000020E9E700006B
:1029C00038B504462D49206888420FD100BF002049
:1029D00000902B48006840F0010029490860084633
:1029E000006800F00100009000BF46E02549206823
:1029F00088420FD100BF002000902148006840F0BD
:102A000002001F4908600846006800F002000090BC
:102A100000BF32E02068B0F1804F1AD100BF002023
:102A200000901748001F006840F001001449091F7A
:102A300008600846006800F00100009000BF00BF79
:102A4000002211461C20FFF757FA1C20FFF744FA1A
:102A500013E00D49206888420FD100BF002000908C
:102A60000748006840F400300549086008460068DF
:102A700000F40030009000BF00BF38BD00000140EE
:102A80004438024000040140004401400146022055
:102A900081F83D000868806800F00702062A05D02A
:102AA0000868006840F001000B681860012081F898
:102AB0003D000020704701460868C06840F00100F2
:102AC0000B68D8600868806800F00702062A05D005
:102AD0000868006840F001000B681860002070472B
:102AE0002DE9F04104460D4600BF94F83C00012852
:102AF00002D10220BDE8F081012084F83C0000BF33
:102B0000022084F83D002068866826F0770626F4C7
:102B10007F46206886602868502833D00CDC202847
:102B200050D004DC00284BD0102851D149E0302887
:102B300049D040284CD139E060282DD0702807D0EA
:102B4000B0F5805F03D0B0F5005F41D10DE040E00B
:102B5000D5E902136A68206801F0A1F92068866847
:102B600046F077062068866033E0D5E902136A688C
:102B7000206801F094F92068806840F48040216862
:102B8000886026E0EA686968206801F079FA5021D7
:102B9000206801F08FF91CE0EA686968206801F09C
:102BA00082FA6021206801F085F912E0EA6869681C
:102BB000206801F065FA4021206801F07BF908E007
:102BC00000BF00BF00BF2968206801F073F900E072
:102BD00000BF00BF012084F83D0000BF002084F842
:102BE0003C0000BF00BF85E7704710B50446206871
:102BF0000069C0F34000D8B12068C068C0F340004D
:102C0000B0B16FF0020021680861012020772068D0
:102C1000806900F0030018B12046FFF7E5FF05E0EA
:102C2000204600F04DF9204600F0EAF90020207718
:102C300020680069C0F38000D8B12068C068C0F384
:102C40008000B0B16FF00400216808610220207795
:102C50002068806900F4407018B12046FFF7C4FF77
:102C600005E0204600F02CF9204600F0C9F90020CC
:102C7000207720680069C0F3C000D8B12068C06820
:102C8000C0F3C000B0B16FF00800216808610420F3
:102C900020772068C06900F0030018B12046FFF7D4
:102CA000A3FF05E0204600F00BF9204600F0A8F94C
:102CB0000020207720680069C0F30010D8B1206898
:102CC000C068C0F30010B0B16FF010002168086157
:102CD000082020772068C06900F4407018B12046B1
:102CE000FFF782FF05E0204600F0EAF8204600F0FA
:102CF00087F9002020772068006900F0010058B1B2
:102D00002068C06800F0010030B16FF00100216858
:102D10000861204600F0A2F920680069C0F3C010E5
:102D200058B12068C068C0F3C01030B16FF08000A7
:102D3000216808612046FFF7C2FD20680069C0F3E2
:102D4000801058B12068C068C0F3801030B16FF0B7
:102D5000400021680861204600F081F92068006980
:102D6000C0F3401058B12068C068C0F3401030B1C3
:102D70006FF02000216808612046FFF7A1FD10BD1B
:102D800010B586B00446142101A8FDF779FB44492B
:102D9000206888421FD100BF002000904148006891
:102DA00040F010003F4908600846006800F010003D
:102DB000009000BF00BF4FF4D44001900220029069
:102DC00001200390022004900120059001A93648BB
:102DD000FEF7F8FE61E03549206888423BD100BF2C
:102DE000002000902F48006840F480702D49086052
:102DF0000846006800F48070009000BF00BF00BF6C
:102E0000002000900846006840F004000860084672
:102E1000006800F00400009000BF00BFC0200190D7
:102E200002200290012003900220049003200590CC
:102E300001A91F48FEF7C6FE402001900220029023
:102E400001200390022004900320059001A9194855
:102E5000FEF7B8FE21E01849206888421DD100BF66
:102E6000002000900F48006840F020000D490860E5
:102E70000846006800F02000009000BF00BF40201E
:102E80000190022002900120039002200490032070
:102E9000059001A90948FEF795FE06B010BD000097
:102EA00000000140303802400010024000040140A0
:102EB000002002400008024000440140001402408B
:102EC000704770B504460D46164600BF94F83C00A6
:102ED000012801D1022070BD012084F83C0000BF10
:102EE000022084F83D0036B1042E1BD0082E31D0CC
:102EF0000C2E5ED145E02946206800F0E5FF2068F1
:102F0000806940F00800216888612068806920F0AD
:102F10000400216888612068806929690843216864
:102F2000886147E02946206801F006F8206880693A
:102F300040F40060216888612068806920F4806026
:102F40002168886120688069296940EA0120216838
:102F500088612FE02946206801F02CF82068C069BC
:102F600040F008002168C8612068C06920F00400B2
:102F70002168C8612068C069296908432168C8615F
:102F800018E02946206801F051F82068C06940F433
:102F900000602168C8612068C06920F480602168F1
:102FA000C8612068C069296940EA01202168C861B8
:102FB00000E000BF00BF012084F83D0000BF0020FA
:102FC00084F83C0000BF00BF85E710B504460CB98B
:102FD000012010BD94F83D0028B9002084F83C0081
:102FE000204600F00CF8022084F83D00211D2068E6
:102FF00000F0D8FE012084F83D000020E9E770478A
:103000007047000070B504460E4601223146206824
:1030100000F034FF0F492068884203D00E49206831
:10302000884201D1012000E0002028B12068406CD6
:1030300040F40040216848642068806800F007057B
:10304000062D05D02068006840F001002168086066
:10305000002070BD0000014000040140704770472F
:1030600010B504460CB9012010BDA06900B100E004
:1030700000BF94F8390028B9002084F838002046B1
:1030800000F028F8242084F839002068C06820F473
:1030900000502168C860204601F01AF820680069D5
:1030A00020F49040216808612068406920F02A00DF
:1030B000216848612068C06840F400502168C860F9
:1030C0000020E063202084F8390084F83A000020D2
:1030D000CAE7000010B586B00446142101A8FDF728
:1030E000CFF98F492068884278D100BF0020009036
:1030F0008C48006840F010008A4908600846006863
:1031000000F01000009000BF00BF00BF0020009042
:1031100084481438006840F002008249143908607D
:103120000846006800F00200009000BF00BF00BF2A
:10313000002000900846006840F001000860084642
:10314000006800F00100009000BF00BF80200190E7
:103150000220029001200390032004900720059094
:1031600001A97148FEF72EFD4FF400700190022076
:10317000029001200390032004900720059001A9EC
:103180006A48FEF71FFD6A486A4908604FF0006010
:1031900048604021674881600021C1604FF4806130
:1031A0000161002141618161C1614FF440310162DF
:1031B00000214162FEF76CFC08B1FEF737FB00BF4F
:1031C0005C482063846300BF002211462520FEF77F
:1031D00093FE2520FEF780FE9FE0FFE7564920681A
:1031E000884239D100BF002000904E48006840F06E
:1031F00020004C4908600846006800F0200000905C
:1032000000BF00BF00BF002000904648143800688F
:1032100040F040004349143908600846006800F057
:103220004000009000BF00BF4FF484400190022096
:10323000029001200390032004900820059001A92A
:103240003E48FEF7BFFC002211464720FEF754FE21
:103250004720FEF741FE60E03949206888425CD192
:1032600000BF002000902F48001F006840F480201D
:103270002C49091F08600846006800F4802000906F
:1032800000BF00BF00BF002000902648143800682F
:1032900040F004002349143908600846006800F033
:1032A0000400009000BF00BF4FF440600190022076
:1032B000029001200390032004900720059001A9AB
:1032C0002048FEF77FFC2048204908604FF000604E
:1032D000486000211D488160C1604FF48061016138
:1032E0000021416181614FF48071C1614FF440312F
:1032F000016200214162FEF7CBFB08B1FEF796FAAE
:1033000000BF12486063846300BF0022114627207B
:10331000FEF7F2FD2720FEF7DFFD06B010BD00002E
:103320000010014044380240000402400000024006
:10333000B8640240D8010020001401400018024087
:103340000048004000080240286002405803002066
:103350002DE9F84304460D4616461F464FF0000976
:1033600094F8390020285CD105B116B90120BDE8D8
:10337000F88300BF94F83800012801D10220F6E755
:10338000012084F8380000BF0020E063212084F889
:103390003900FEF727FD8146A684E6842BE0E08C09
:1033A000401EE084A068B0F5805F16D14B46002235
:1033B00080212046009701F03FF808B10320D6E7AE
:1033C000A846B8F80000C0F30800216848602069EA
:1033D00008B9AD1C0FE06D1C0DE04B4600228021AA
:1033E0002046009701F028F808B10320BFE715F840
:1033F000010B21684860E08C0028D0D14B460022A8
:1034000040212046009701F017F808B10320AEE7ED
:10341000202084F8390000BF002084F8380000BF65
:10342000A5E70220A3E700BFFEE7000010B52DEDE1
:10343000028B714A71497248FEF77CF8704890ED32
:10344000000A10EE101A084602F086FF41EC180B35
:1034500053EC182B6BA16C48FCF78EFF684890ED7D
:10346000010A10EE101A084602F076FF41EC180B24
:1034700053EC182B63A164481430FCF77DFF6048BF
:1034800090ED020A10EE101A084602F065FF41ECBA
:10349000180B53EC182B5BA15B482830FCF76CFF32
:1034A000564890ED000A10EE101A084602F054FF3C
:1034B00041EC180B53EC182B52A15448FCF75CFF5D
:1034C0004E4890ED010A10EE101A084602F044FF33
:1034D00041EC180B53EC182B4AA14C481430FCF764
:1034E0004BFF464890ED020A10EE101A084602F013
:1034F00033FF41EC180B53EC182B42A14348283002
:10350000FCF73AFF3C48006802F026FF41EC180B3C
:1035100053EC182B3BA13E48FCF72EFF64230622F8
:103520003CA13E48FFF714FF6423142236493B4870
:10353000FFF70EFF6423032239A13848FFF708FF85
:1035400064231422304914313448FFF701FF642307
:10355000032233A13148FFF7FBFE642314222A49DA
:1035600028312E48FFF7F4FE642302222DA12B48B8
:10357000FFF7EEFE642306222BA12848FFF7E8FEA2
:103580006423142221492548FFF7E2FE6423032225
:1035900023A12248FFF7DCFE642314221B491431C7
:1035A0001E48FFF7D5FE642303221DA11B48FFF729
:1035B000CFFE64231422154928311848FFF7C8FEAE
:1035C0006423022217A11548FFF7C2FE64230522D7
:1035D00017A11248FFF7BCFE642314220C490F48C0
:1035E000FFF7B6FE642302220EA10C48FFF7B0FEDF
:1035F000BDEC028B10BD00003000002080000020D8
:1036000074000020256600008C000020C800002007
:10361000040100206779726F3A0000001801002051
:103620002C2000000A000000616363656C3A000012
:1036300074656D703A00000008B500BF002000906E
:103640001E48006840F400101C49086008460068E5
:1036500000F40010009000BF00BF00BF00200090E9
:103660000846006840F4800008600846006800F4DE
:103670008000009000BF00BF002211460C20FEF722
:103680003BFC0C20FEF728FC002211464620FEF7EA
:1036900033FC4620FEF720FC002205213A20FEF7ED
:1036A0002BFC3A20FEF718FC002211463B20FEF7C7
:1036B00023FC3B20FEF710FC08BD00003038024020
:1036C00000B587B0142102A8FCF7DAFE00BF002085
:1036D00001904B48006840F00100494908600846E5
:1036E000006800F00100019000BF00BF00BF002093
:1036F00001900846006840F0020008600846006833
:1037000000F00200019000BF00BF00BF0020019048
:103710000846006840F0040008600846006800F0B1
:103720000400019000BF00BF00BF002001900846C8
:10373000006840F0200008600846006800F02000A3
:10374000019000BF00BF00BF002001900846006844
:1037500040F0800008600846006800F0800001909A
:1037600000BF00BF01224FF4E0512648FEF733FBB3
:10377000012210212448FEF72EFB01221146234886
:10378000FEF729FB4FF4E0500290012003900490D3
:103790000220059002A91B48FEF714FA102002909F
:1037A0000120039004900220059002A91648FEF71C
:1037B00009FA30200290164803900120049002A9D3
:1037C0001448FEF7FFF901200290039004900220B4
:1037D000059002A90D48FEF7F5F9002211460A20CE
:1037E000FEF78AFB0A20FEF777FB0022114617201E
:1037F000FEF782FB1720FEF76FFB07B000BD00004D
:1038000030380240001C0240000002400004024028
:10381000000021100008024000B587B01C21684656
:10382000FCF72EFE1548164908600020486000216C
:103830001348816041F28731C160002101618161DB
:10384000FFF7A3F808B1FDF7F1FF0D48FFF7BDFB47
:1038500008B1FDF7EBFF602000900020019002907E
:103860000490002269460648FFF72BFB08B1FDF7DC
:10387000DDFF0348FFF784FA07B000BD00440140B4
:103880007804002000B595B000201190129013909C
:1038900014900F9010901C2108A8FCF7F1FD202136
:1038A0006846FCF7EDFD384838490860A7204860B5
:1038B00000213648816044F61F61C160002101612A
:1038C00041618161FFF761F808B1FDF7AFFF4FF487
:1038D0008050119011A92D48FFF702F908B1FDF7AA
:1038E000A5FF2A48FFF771FB08B1FDF79FFF0020F5
:1038F0000F9010900FA92548FFF71DF808B1FDF7AC
:1039000095FF602008904FF4FA60099000200A901B
:103910000B900C900D900E90002208A91B48FFF709
:10392000D0FA08B1FDF782FF042208A91748FFF773
:10393000C8FA08B1FDF77AFF082208A91348FFF773
:10394000C0FA08B1FDF772FF0C2208A90F48FFF773
:10395000B8FA08B1FDF76AFF0020009001900290CC
:10396000039004904FF400500590002007906946A2
:103970000648FEF7A6FF08B1FDF758FF0348FFF71A
:10398000FFF915B000BD000000000140B8030020A1
:1039900000B587B000200390049005900690019038
:1039A00002904FF080401549086042F2CF00486015
:1039B00000211248816041F28731C160002101611C
:1039C00080218161FEF7E1FF08B1FDF72FFF4FF481
:1039D0008050039003A90948FFF782F808B1FDF76A
:1039E00025FF00200190029001A90448FEF7A3FFE3
:1039F00008B1FDF71BFF07B000BD00003804002030
:103A000010B50B480B4908604FF4E13048600021C5
:103A100008488160C16001610C2141610021816120
:103A2000C161FFF71DFB08B1FDF700FF10BD0000ED
:103A3000001001401801002010B50B480B49086028
:103A40000B484860002109488160C1604FF48061E3
:103A500001610421416100218161C161FFF700FB27
:103A600008B1FDF7E3FE10BD0048004058010020FA
:103A7000A086010010B50B480B4908604FF4E130F7
:103A80004860002108488160C16001610C214161EA
:103A900000218161C161FFF7E3FA08B1FDF7C6FEBD
:103AA00010BD0000001401409801002000BFFEE797
:103AB0007047704710B5234B1B685B6943F04003A8
:103AC000204C246863611F4B1B68DB6843F01003C4
:103AD0001C4C2468E3601C4B1B681B6823F001032B
:103AE000194C2468236007E0174B1B681B6823F000
:103AF0000103154C24682360134B1B681B6803F0FB
:103B00000103002BF0D1114B0F4C2468A3600E4B26
:103B10001B68D8600C4B1B6819610B4B1B685A6003
:103B2000094B1B681B6843F48023074C24682360FF
:103B3000054B1B681B6843F00103034C246823609A
:103B400010BD000058010020580300200448004028
:103B50007CB504460D461646164800681821B0FB91
:103B6000F1F01549B0FBF1F04FF47A714843019040
:103B70006068B0F5827F0DD12B460022802120465F
:103B8000009600F01BF898B1606D40F02000606571
:103B900003207CBD00BF019800B908E00198401ED9
:103BA000019020688068C0F3C0100028F3D100BFE6
:103BB0000020EEE74000002040420F002DE9F041D8
:103BC00004460E4617461D46DDF818803EE0681C88
:103BD000D8B3FEF707F9A0EB0800A84200D2A5BBB6
:103BE0002068406820F0E000216848606068B0F517
:103BF000827F0DD1A068B0F5004F03D0A068B0F56A
:103C0000806F05D12068006820F0400021680860BE
:103C1000A06AB0F5005F0DD100BF2068006820F4F5
:103C20000050216808602068006840F40050216856
:103C3000086000BF012084F8510000BF002084F814
:103C4000500000BF0320BDE8F081FFE720688068D6
:103C50003040B04201D1012000E00020B842B6D18E
:103C60000020F0E7704710B5FEF7C2F810BD000065
:103C700000B593B0302107A8FCF702FC142102A87C
:103C8000FCF7FEFB00BF002001902448006840F0D4
:103C90008050224908600846006800F0805001907A
:103CA00000BF00BF00BF002001901D48006840F425
:103CB00080401B4908600846006800F4804001907D
:103CC00000BF00BF012007900004089002200D9063
:103CD00041050E9106210F91A82110910221119109
:103CE0000421129107A8FEF797FA08B1FDF79EFD8F
:103CF0000F20029002200390002004904FF4A05067
:103D000005904FF480500690052102A8FEF746F971
:103D100008B1FDF78BFD13B000BD00004038024034
:103D2000007000401448006840F4700012490860B8
:103D30001248006840F001001049086000200F4957
:103D4000083108600D4800680D4908400B490860BB
:103D50000C48091D0860081F006820F48020091F16
:103D60000860002005490C3108604FF000600249EE
:103D7000803908607047000088ED00E0003802409C
:103D8000FFFFF6FE1030002410B50448FEF72DFFAB
:103D900003480068401C0249086010BD3804002038
:103DA0002C00002010B50268294B98420ED0B0F1CB
:103DB000804F0BD0274B984208D0274B984205D014
:103DC000264B984202D0264B984203D122F0700233
:103DD0004B681A431E4B984220D0B0F1804F1DD043
:103DE0001C4B98421AD01C4B984217D01B4B984240
:103DF00014D01B4B984211D01A4B98420ED01A4B3C
:103E000098420BD0194B984208D0194B984205D0D4
:103E1000184B984202D0184B984203D122F44072BA
:103E2000CB681A4322F080034C6943EA0402026023
:103E30008B68C3620B688362054B984202D0084BC3
:103E4000984201D10B6903630123436110BD000057
:103E5000000001400004004000080040000C004049
:103E6000000401400040014000440140004801407E
:103E700000180040001C00400020004030B501F058
:103E80001F05012404FA05F3046A9C430462046AD2
:103E900001F01F0502FA05F52C43046230BD30B570
:103EA0000C46816821F47F4142EA032525432943DA
:103EB000816030BD0A46816821F0700142F007033D
:103EC000194381607047000030B5056A25F001058F
:103ED0000562026A4368846924F0700424F00304D4
:103EE0000D682C4322F002028D682A43104DA8422F
:103EF00000D103E00F4DA84206D100BF22F0080216
:103F0000CD682A4322F00402094DA84202D0094D8F
:103F1000A84207D123F4807323F400734D692B4327
:103F20008D692B43436084614D684563026230BDF7
:103F3000000001400004014030B5056A25F010057D
:103F40000562026A4368846924F4E04424F44074FE
:103F50000D6844EA052422F020028D6842EA051229
:103F6000124DA84200D103E0114DA84207D100BF75
:103F700022F08002CD6842EA051222F040020B4D89
:103F8000A84202D00A4DA84209D123F4806323F449
:103F900000634D6943EA85038D6943EA8503436005
:103FA00084614D688563026230BD000000000140FD
:103FB0000004014030B5056A25F480750562026A87
:103FC0004368C46924F0700424F003040D682C4392
:103FD00022F400728D6842EA0522124DA84200D1F7
:103FE00003E0114DA84207D100BF22F40062CD6862
:103FF00042EA052222F480620A4DA84202D00A4D0C
:10400000A84209D123F4805323F400534D6943EAB5
:1040100005138D6943EA05134360C4614D68C563A8
:10402000026230BD000001400004014030B5056A65
:1040300025F480550562036A4468C26922F4E042AF
:1040400022F440720D6842EA052223F400538D6881
:1040500043EA0533084DA84202D0084DA84204D1D6
:1040600024F480444D6944EA85144460C2614D687B
:104070000564036230BD00000000014000040140FF
:1040800030B50B461446026A056A25F00105056243
:10409000816921F0F00141EA041122F00A021A4379
:1040A0008161026230BD30B50B461446056A25F0C9
:1040B000100505628169026A21F4704141EA043108
:1040C00022F0A00242EA03128161026230BD0000C8
:1040D0002DE9F04104462068006920F44050E16871
:1040E0000843216808612169A068084361690843A1
:1040F000E16940EA01052068C06849F20C61884323
:1041000028432168C8602068406920F44070A16994
:10411000084321684861E069B0F5004F7ED1C44989
:104120002068884203D0C349206888425DD1FEF7E9
:104130000BF800EBC00101EB001061684900B0FB17
:10414000F1F06421B0FBF1F00601FDF7FDFF00EB9B
:10415000C00101EB001061684900B0FBF1F7FDF709
:10416000F3FF00EBC00101EB001061684900B0FBF8
:10417000F1F06421B0FBF1F000EBC00101EB0010A5
:10418000A7EB8000322101EBC0006421B0FBF1F00D
:1041900000F0F80006EB4006FDF7D6FF00EBC0018B
:1041A00001EB001061684900B0FBF1F7FDF7CCFFAF
:1041B00000EBC00101EB001061684900B0FBF1F0B9
:1041C0006421B0FBF1F000EBC00101EB0010A7EBA4
:1041D0008000322101EBC0006421B0FBF1F000F05F
:1041E000070030442168886020E1FDF79DFF00EB67
:1041F000C00101EB001061684900B0FBF1F06421DF
:10420000B0FBF1F00601FDF78FFF00EBC00101EB01
:10421000001061684900B0FBF1F700E045E0FDF7F0
:1042200083FF00EBC00101EB001061684900B0FBA7
:10423000F1F06421B0FBF1F000EBC00101EB0010E4
:10424000A7EB8000322101EBC0006421B0FBF1F04C
:1042500000F0F80006EB4006FDF766FF00EBC0013A
:1042600001EB001061684900B0FBF1F7FDF75CFF5E
:1042700000EBC00101EB001061684900B0FBF1F0F8
:104280006421B0FBF1F000EBC00101EB0010A7EBE3
:104290008000322101EBC0006421B0FBF1F000F09E
:1042A0000700304421688860C0E061492068884286
:1042B00003D06049206888425CD1FDF745FF00EBE0
:1042C000C00101EB001061688900B0FBF1F6FDF759
:1042D0003BFF00EBC00101EB001061688900B0FBFF
:1042E000F1F06421B0FBF1F000EBC00101EB001034
:1042F000A6EB8000322101EB00106421B0FBF1F04D
:1043000000F0F006FDF720FF00EBC00101EB00100C
:1043100061688900B0FBF1F06421B0FBF1F006EBBD
:104320000016FDF711FF00EBC00101EB0010616802
:104330008900B0FBF1F7FDF707FF00EBC00101EBCF
:10434000001061688900B0FBF1F06421B0FBF1F06E
:1043500000EBC00101EB0010A7EB8000322101EB64
:1043600000106421B0FBF1F000F00F003044216830
:1043700088605BE0FDF7D8FE00EBC00101EB0010A8
:1043800061688900B0FBF1F6FDF7CEFE00EBC001DD
:1043900001EB001061688900B0FBF1F06421B0FB13
:1043A000F1F000EBC00101EB0010A6EB8000322120
:1043B00001EB00106421B0FBF1F000F0F006FDF716
:1043C000B3FE00EBC00101EB001061688900B0FB97
:1043D000F1F06421B0FBF1F006EB0016FDF7A4FE4E
:1043E00000EBC00101EB001061688900B0FBF1F740
:1043F000FDF79AFE00EBC00101EB00106168890037
:10440000B0FBF1F06421B0FBF1F000EBC00101EB77
:104410000010A7EB8000322101EB00106421B0FBFB
:10442000F1F000F00F00304421688860BDE8F081B1
:1044300000100140001401402DE9F04104460D46F2
:1044400017469846069E21E0701CF8B12EB1FDF784
:10445000C9FCA0EB0800B04218D92068C06820F45D
:10446000D0702168C8602068406920F00100216890
:104470004861202084F8390084F83A0000BF002009
:1044800084F8380000BF0320BDE8F0812068006890
:104490002840A84201D1012000E00020B842D3D03A
:1044A0000020F1E708B533480068006800F02000FC
:1044B00000285ED02F4800684068C0B200909DF888
:1044C000000036282FD008DCA0F1300006284ED29C
:1044D000DFE800F0232425262728392826D004DC0D
:1044E000372821D0382842D11FE073280BD07428F8
:1044F0003DD1012020490870002020490870204843
:104500000021016034E001201C49087000201A4994
:1045100008701C48002101602AE000BF00BF00BFF6
:1045200000BF00BF00BF00BF00BF00BF124800783F
:1045300001280BD1124800F081FA0346042B00D168
:1045400016E09DF800000E49C8540FE00B480078B3
:1045500001280BD10B4800F071FA0346042B00D15F
:1045600006E09DF800000749C85400BF00E000BF06
:1045700000BF08BD180100202800002029000020ED
:10458000200000202400002008B541480068006891
:1045900000F0200060B100BF002000903C4800689F
:1045A000006800903A4800684068009000BF6EE0E4
:1045B0003848006800F01000002868D000BF0020D4
:1045C00000903348006800680090314800684068F7
:1045D000009000BF00BF30480068006800F4002071
:1045E00058BB2D480068006820F001002A4909687E
:1045F0000860294800684068C0F124002749088005
:10460000242025490968486023480068006840F470
:1046100000202149096808601F480068006840F0D0
:1046200001001D49096808601C48008812282ED125
:104630001B491C4800F0EAFB29E0174800680068A5
:1046400020F00100144909680860134800684068B8
:10465000C0F124001149088024200F4909684860EE
:104660001148806A20F400200F4988620A480068D7
:10467000006840F0010008490968086007480088A0
:10468000122804D106490748243000F0BFFB08BDBA
:10469000580100200048004058030020440000203A
:1046A000D0050020E60500200060024008B5114852
:1046B0000068006800F0200050B10E4800684068B3
:1046C000C0B200904FF480610B48FDF77BFB10E017
:1046D00008480068006800F0100050B10548006804
:1046E0004068C0B2009000224FF480610248FDF79C
:1046F00072FB08BD98010020001C024000BFFEE7CD
:1047000003B401984100009850EAC12018BF04206A
:104710004A0D18BF40F0010040F2FF72B2EB515F4A
:1047200008BF40F00200012808BF052002B0704712
:1047300002480068C0F30220704700000CED00E062
:1047400010B5002804DB0A07130E054A135406E0CF
:104750000A07140E034A00F00F031B1FD45410BDA8
:1047600000E400E018ED00E070B500250024FCF73F
:104770007FFE8020FCF7BCFF5520FCF7B9FF5520D9
:10478000FCF7B6FF0546FCF769FE9620FCF79EFE97
:10479000FCF76EFE8020FCF7ABFF5520FCF7A8FF6E
:1047A0005520FCF7A5FF0546FCF758FE9620FCF7C0
:1047B0008DFEFCF75DFEB6217E20FCF7A9FFFCF71D
:1047C0004DFE5020FCF775FEFCF752FE8020FCF7F2
:1047D0008FFF5520FCF78CFF5520FCF789FF05461D
:1047E000FCF73CFE9620FCF771FEFCF741FE8020B2
:1047F000FCF77EFF5520FCF77BFF5520FCF778FF88
:104800000546FCF72BFE9620FCF760FE1E2D01D01E
:10481000FF2070BD002434E0FCF72AFE04EB4402C4
:104820001A4B1A44517804EB4402985CFCF770FF71
:10483000FCF714FE9620FCF749FEFCF719FE04EB8A
:104840004401124A515C41F08000FCF751FF5520B1
:10485000FCF74EFF5520FCF74BFF0546FCF7FEFD2D
:104860009620FCF733FE04EB4400084908444078E6
:10487000A84204D004EB440008448078C9E7601CD7
:10488000C4B2062CC8DB0020C3E7000050000020A3
:1048900038B5002400200090FCF700FE6946002097
:1048A000FCF719FFFCF7F0FD9620FCF70FFEFCF774
:1048B000F5FD69460020FCF70EFFFCF7E5FD9620AC
:1048C000FCF704FEFCF7EAFDB6211420FCF720FFFC
:1048D000FCF7DAFD5020FCF7ECFDFCF7DFFD694644
:1048E0000020FCF7F8FEFCF7CFFD9620FCF7EEFD6C
:1048F000FCF7D4FD69460020FCF7EDFEFCF7C4FD93
:104900009620FCF7E3FD9DF800000F2801D0FF2062
:1049100038BD00242FE0FCF7C1FD04EB4402184B26
:104920001A44517804EB4402985CFCF7F1FEFCF762
:10493000ABFD9620FCF7CAFDFCF7B0FD04EB44018B
:104940000F4A505C6946FCF7C6FEFCF79DFD9620B9
:10495000FCF7BCFD04EB44000949084440789DF88D
:104960000010884205D004EB4400054908448078D3
:10497000CEE7601CC4B2062CCDDB0020C8E70000E7
:104980006200002010B52DED028BB0EE408AB5EE2E
:10499000C08AF1EE10FA08DB18EE100A01F0DCFC18
:1049A00041EC100BBDEC028B10BDBFEE000A28EEEF
:1049B000000A10EE101A084601F0CEFC41EC100B74
:1049C000F0E700000146DFED1A0AB2EE041A40EEED
:1049D000010AFCEEE00A10EE902A90B20A2290FB47
:1049E000F2F302FB130230320A710A2290FBF2F258
:1049F00090B20A2290FBF2F302FB13023032CA702B
:104A00000A2290FBF2F290B20A2290FBF2F302FB30
:104A1000130230328A700A2290FBF2F290B20A221C
:104A200090FBF2F302FB130230324A707047000031
:104A300000007A4400487047D0050020014600205D
:104A400001E0421CD0B20A5C002AFAD17047000093
:104A50002DED068BB6B0FDF7D7F9FFF709F9FEF794
:104A60002FFEFEF7E9FDFEF7CBFFFFF703F8FEF799
:104A7000E3FFB2480068C06840F02000AF49096811
:104A8000C86000F0B9F9FFF7D5FFAD490860002212
:104A90004FF48051AB48FDF79EF900224FF40061BE
:104AA000A848FDF798F900224FF48061A548FDF76A
:104AB00092F9FEF7E7FEA448FDF7E8FF0021A248BF
:104AC000FEF7A0FA0421A048FEF79CFAFEF760FF6B
:104AD0009E48FDF7F0FF9D48FDF7D8FFFEF79CFECE
:104AE00004E0012211039748FDF775F9FCF713FD67
:104AF0000028F6D10122D1029248FDF76CF91CE1A1
:104B00001220FDF73BF88E480068857AFEF78EFC90
:104B1000FCF78EFE064632468DA11DA8FBF72CFC45
:104B2000642305228BA18548FEF712FC64231A46F4
:104B30001DA98248FEF70CFC6423022287A17F484E
:104B4000FEF706FC032D7DD1FCF772FE07463A46C0
:104B50007FA104A8FBF710FC642305227DA1774800
:104B6000FEF7F6FB64231A4604A97448FEF7F0FB2F
:104B70006423022279A17148FEF7EAFB70490968B3
:104B8000C988642211FB02F001F0ABF99FED740BB0
:104B900053EC102B01F0F8F99FED730B53EC102B35
:104BA00001F018F800F030FF7149086064490968A5
:104BB0000988642211FB02F001F093F99FED680B64
:104BC00053EC102B01F0E0F99FED670B53EC102B29
:104BD00001F000F800F018FF66490860644890EDA5
:104BE000000A6548FFF7EEFE624890ED000A634850
:104BF000FFF7E8FE00BF002001900290039001241F
:104C00000AE05D48015D601E01AA11545B48015D28
:104C1000E01C1154601CC4B2052CF2DB6423082292
:104C200001A94648FEF794FB554890ED001ADFEDC8
:104C3000550A4F4890ED000A00F01CFC524890EDD8
:104C4000001A00E007E0DFED510A4A4890ED000A43
:104C500000F04AF970E0022D44D139490968C98849
:104C6000642211FB02F001F03CF99FED3D0B53EC87
:104C7000102B01F089F99FED3C0B53EC102B00F049
:104C8000A9FF00F0C1FE3A4908602D49096809886A
:104C9000642211FB02F001F024F99FED310B53EC7B
:104CA000102B01F071F99FED300B53EC102B00F03D
:104CB00091FF00F0A9FE2F490860314890ED001ADD
:104CC000DFED330A2A4890ED000A00F0D3FB2E48AE
:104CD00090ED001ADFED2D0A264890ED000A00F055
:104CE00003F929E02B48FFF7A9FE042805D129483C
:104CF00000F054F81E4880ED000A2748FFF79EFE9A
:104D0000042805D1244800F049F81A4880ED000A2B
:104D10001B4890ED001ADFED1D0A154890ED000AC2
:104D200000F0A8FB184890ED001ADFED180A1148B2
:104D300090ED000A00F0D8F800BFE1E6180100206D
:104D400000000020001C0240B803002038040020AE
:104D50002564000074696D65000000000A00000011
:104D6000000000000000F03F0000000000A08440B0
:104D70000400002008000020140000201A00002079
:104D80000C0000209A99193F100000209A99993E32
:104D90003333733F20000020240000200146DFED64
:104DA000130AB0EE600A002000BF10E00A5C00EEBB
:104DB000902AF8EE600AB2EE041A40EE010A9FED66
:104DC0000C1A70EEC10AB0EE600A421CD0B2042880
:104DD000ECDBDFED080A70EE600AB0EE600AF2EE7E
:104DE000040A80EE201AB0EE410A7047000000006D
:104DF0000000404200007A4410B524220249A1F18B
:104E00002400FEF757FE10BD0A06002000B101B9CC
:104E100070470278437842EA0322C2F30A020A800A
:104E20004278D210837842EA4312C2F30A024A80DF
:104E300082789211C37842EA8302037942EA83229C
:104E4000C2F30A028A8002795210437942EAC312FD
:104E5000C2F30A02CA804279C2F301128A7242790D
:104E600012119308CB728279C37942EA032212B2FB
:104E70008A81027A437A42EA032213B201F10C02D8
:104E8000CB81827AC37A42EA032213B201F10C0287
:104E90000B82037B8B74437BCB74827BC37B42EAA4
:104EA00003228A82027C437C42EA032212B20A81F4
:104EB0000A88A2F5806212B20A804A88A2F580624E
:104EC00012B24A808A88A2F5806212B28A80CA88A9
:104ED000A2F5806212B2CA800A89A2F5806212B27B
:104EE0000A8100BF94E7000030B52DED040B2DEDD5
:104EF000108B8BB0B0EE608AF0EE418A9DED1B0AFC
:104F0000FFF740FDB0EE409AF0EE609A9FEDF70B90
:104F100053EC102B51EC190B00F0FAFF57D2B2EE04
:104F2000040A28EE800A10EE101A084601F014FA5E
:104F300041EC1A0B18EE100A01F00EFA41EC1F0BAF
:104F40009DED1B0AFFF71EFD8DED040B9DED1B0A69
:104F500000F07EFA054600F0C4FF41EC1E0B9DED0B
:104F6000040B53EC102B01F00FF89FEDE20B53EC08
:104F7000102BCDE906019DED060B51EC100B01F055
:104F800003F89FEDDE0B53EC102BCDE908019DEDEE
:104F9000080B51EC100B00F0F7FF41EC1D0B53EC2C
:104FA0001F2B00F0F1FF41EC1C0B9FEDD60B53ECD7
:104FB000102B00F05BFD41EC1B0B53EC1A2B00F0A7
:104FC00055FD41EC190B00F05DFF04462FE29DED0D
:104FD0001B0AFFF7D7FCB0EE409AF0EE609A9FED07
:104FE000CB0B53EC102B51EC190B00F091FF72D24C
:104FF000B2EE040A28EE800A10EE101A084601F0FC
:10500000ABF941EC190B18EE100A01F0A5F941ECCF
:105010001C0B9DED1B0AFFF7B5FC8DED000B9FED02
:10502000B30B53EC102B9DED000B51EC100B01F06A
:10503000A9F89FEDB80B53EC102BCDE902019DEDC3
:10504000020B51EC100B00F09FFF9FEDAC0B53ECEB
:10505000102BCDE904019DED040B51EC100B00F079
:1050600005FD41EC1F0B9DED1B0A00F0F1F9054613
:1050700000F037FF53EC1F2BCDE906019DED060B29
:1050800051EC100B00F080FF41EC1E0B9FED9B0BD1
:1050900053EC102B00F078FF41EC1D0B53EC1C2B54
:1050A00000F072FF41EC1B0B9FED960B53EC102BA5
:1050B00000F0DCFC41EC1A0B53EC192B00F0D6FC91
:1050C000CDE908019DED080B51EC100B00F0DAFE64
:1050D0000446ACE1FFE79DED1B0AFFF753FCB0EE81
:1050E000409AF0EE609A9FED8D0B53EC102B51EC33
:1050F000190B00F00DFF72D2B2EE040A28EE800AFE
:1051000010EE101A084601F027F9CDE9060118EE55
:10511000100A01F021F9CDE900019DED1B0AFFF70E
:1051200031FCB0EE40FAF0EE60FA9FED780B53ECF4
:10513000102B51EC1F0B01F025F841EC1E0B9FEDDD
:10514000790B53EC102B00F01FFF41EC1D0B9FED72
:10515000770B53EC102B00F089FC41EC1B0B9DED01
:105160001B0A00F075F9054600F0BBFE41EC1C0B74
:1051700053EC1B2B00F008FF41EC1A0B9FED5F0B6B
:1051800053EC102B00F000FF41EC190B9DED000BD0
:1051900053EC102B00F0F8FE9FED5A0B53EC102B44
:1051A000CDE902019DED020B51EC100B00F05EFC0D
:1051B000CDE904019DED060B53EC102B9DED040B86
:1051C00051EC100B00F052FCCDE908019DED080BED
:1051D00051EC100B00F056FE044628E1FFE79DED70
:1051E0001B0AFFF7CFFBB0EE409AF0EE609A9FEDFE
:1051F000510B53EC102B51EC190B00F089FE73D2BC
:10520000B2EE040A28EE800A10EE101A084601F0E9
:10521000A3F841EC190B18EE100A01F09DF841ECCF
:105220001B0B9DED1B0AFFF7ADFBB0EE40EAF0EE65
:1052300060EA9FED3A0B53EC102B51EC1E0B00F083
:10524000A1FF41EC1D0B9FED3D0B53EC102B00F02B
:105250009BFE41EC1C0B9FED3B0B53EC102B00F025
:1052600005FCCDE902019DED1B0A00F0F1F80546B1
:1052700000F037FECDE900019DED020B53EC102B41
:105280009DED000B51EC100B00F07EFE9FED1B0B13
:1052900053EC102BCDE904019DED040B51EC100BE8
:1052A00000F072FE53EC1B2BCDE906019DED060BC1
:1052B00051EC100B00F068FE41EC1A0B9FED110B46
:1052C00053EC102B00F0D2FB53EC192BCDE9080165
:1052D0009DED080B51EC100B00F0C8FB41EC1F0BCF
:1052E00000F0D0FD0446A2E030E000000000000025
:1052F00000003440000000000000E03F000000001B
:1053000000002440000000000070974000000000F2
:1053100000004440666666666666E63F0000000080
:1053200000004E40000000000000F03F00000000C0
:10533000000038400000000000005440CDCCCCCC30
:10534000CCCCF43F0000000000004640B2EE040A5E
:1053500028EE800A10EE101A084600F0FDFF41EC1E
:10536000190B18EE100A00F0F7FF41EC1C0B9DED35
:105370001B0AFFF707FB8DED000B1FED120B53EC23
:10538000102B9DED000B51EC100B00F0FBFE9FED80
:105390002B0B53EC102BCDE902019DED020B51ECD0
:1053A000100B00F0F1FD9FED270B53EC102BCDE916
:1053B00004019DED040B51EC100B00F057FB41EC88
:1053C0001F0B9DED1B0A00F043F8054600F089FD18
:1053D00053EC1F2BCDE906019DED060B51EC100B94
:1053E00000F0D2FD41EC1E0B1FED3C0B53EC102BDB
:1053F00000F0CAFD41EC1D0B53EC1C2B00F0C4FD6A
:1054000041EC1B0B1FED410B53EC102B00F02EFB5E
:1054100041EC1A0B53EC192B00F028FBCDE90801E5
:105420009DED080B51EC100B00F02CFD04460748D5
:10543000006844630BB0BDEC108B3FBD0000000062
:105440000000F83F0000000000805140B803002039
:10545000B5EEC00AF1EE10FA01DD01207047B5EE9D
:10546000C00AF1EE10FA02D24FF0FF30F6E700204A
:10547000F4E7000030B52DED040B2DED108B8BB053
:10548000B0EE608AF0EE418A9DED1B0AFFF77AFAD2
:10549000B0EE409AF0EE609A9FEDF70B53EC102BB4
:1054A00051EC190B00F034FD57D2B2EE040A28EE8D
:1054B000800A10EE101A084600F04EFF41EC1A0B5D
:1054C00018EE100A00F048FF41EC1F0B9DED1B0A7F
:1054D000FFF758FA8DED040B9DED1B0AFFF7B8FF9F
:1054E000054600F0FEFC41EC1E0B9DED040B53EC59
:1054F000102B00F049FD9FEDE20B53EC102BCDE992
:1055000006019DED060B51EC100B00F03DFD9FEDEB
:10551000DE0B53EC102BCDE908019DED080B51EC8F
:10552000100B00F031FD41EC1D0B53EC1F2B00F074
:105530002BFD41EC1C0B9FEDD60B53EC102B00F018
:1055400095FA41EC1B0B53EC1A2B00F08FFA41EC4F
:10555000190B00F097FC04462FE29DED1B0AFFF7A4
:1055600011FAB0EE409AF0EE609A9FEDCB0B53EC3F
:10557000102B51EC190B00F0CBFC72D2B2EE040AE6
:1055800028EE800A10EE101A084600F0E5FE41EC05
:10559000190B18EE100A00F0DFFE41EC1C0B9DED1C
:1055A0001B0AFFF7EFF98DED000B9FEDB30B53ECEA
:1055B000102B9DED000B51EC100B00F0E3FD9FED67
:1055C000B80B53EC102BCDE902019DED020B51EC11
:1055D000100B00F0D9FC9FEDAC0B53EC102BCDE978
:1055E00004019DED040B51EC100B00F03FFA41EC6F
:1055F0001F0B9DED1B0AFFF72BFF054600F071FC0A
:1056000053EC1F2BCDE906019DED060B51EC100B61
:1056100000F0BAFC41EC1E0B9FED9B0B53EC102BE2
:1056200000F0B2FC41EC1D0B53EC1C2B00F0ACFC69
:1056300041EC1B0B9FED960B53EC102B00F016FA70
:1056400041EC1A0B53EC192B00F010FACDE90801CC
:105650009DED080B51EC100B00F014FC0446ACE17E
:10566000FFE79DED1B0AFFF78DF9B0EE409AF0EED3
:10567000609A9FED8D0B53EC102B51EC190B00F041
:1056800047FC72D2B2EE040A28EE800A10EE101A1D
:10569000084600F061FECDE9060118EE100A00F0A0
:1056A0005BFECDE900019DED1B0AFFF76BF9B0EE43
:1056B00040FAF0EE60FA9FED780B53EC102B51ECB2
:1056C0001F0B00F05FFD41EC1E0B9FED790B53ECBF
:1056D000102B00F059FC41EC1D0B9FED770B53ECA8
:1056E000102B00F0C3F941EC1B0B9DED1B0AFFF7DB
:1056F000AFFE054600F0F5FB41EC1C0B53EC1B2BF9
:1057000000F042FC41EC1A0B9FED5F0B53EC102BA9
:1057100000F03AFC41EC190B9DED000B53EC102B03
:1057200000F032FC9FED5A0B53EC102BCDE9020137
:105730009DED020B51EC100B00F098F9CDE904013E
:105740009DED060B53EC102B9DED040B51EC100B53
:1057500000F08CF9CDE908019DED080B51EC100B20
:1057600000F090FB044628E1FFE79DED1B0AFFF7E0
:1057700009F9B0EE409AF0EE609A9FED510B53ECB0
:10578000102B51EC190B00F0C3FB73D2B2EE040ADC
:1057900028EE800A10EE101A084600F0DDFD41ECFC
:1057A000190B18EE100A00F0D7FD41EC1B0B9DED14
:1057B0001B0AFFF7E7F8B0EE40EAF0EE60EA9FED73
:1057C0003A0B53EC102B51EC1E0B00F0DBFC41ECC0
:1057D0001D0B9FED3D0B53EC102B00F0D5FB41EC66
:1057E0001C0B9FED3B0B53EC102B00F03FF9CDE968
:1057F00002019DED1B0AFFF72BFE054600F071FB31
:10580000CDE900019DED020B53EC102B9DED000B3B
:1058100051EC100B00F0B8FB9FED1B0B53EC102B61
:10582000CDE904019DED040B51EC100B00F0ACFB35
:1058300053EC1B2BCDE906019DED060B51EC100B33
:1058400000F0A2FB41EC1A0B9FED110B53EC102B57
:1058500000F00CF953EC192BCDE908019DED080B74
:1058600051EC100B00F002F941EC1F0B00F00AFBA9
:105870000446A2E030E000000000000000003440D8
:10588000000000000000E03F000000000000244095
:10589000000000000070974000000000000044403D
:1058A000666666666666E63F0000000000004E40E1
:1058B000000000000000F03F000000000000384041
:1058C0000000000000005440CDCCCCCCCCCCF43F48
:1058D0000000000000004640B2EE040A28EE800AF4
:1058E00010EE101A084600F037FD41EC190B18EEC7
:1058F000100A00F031FD41EC1C0B9DED1B0AFFF777
:1059000041F88DED000B1FED120B53EC102B9DEDAC
:10591000000B51EC100B00F035FC9FED2B0B53EC02
:10592000102BCDE902019DED020B51EC100B00F0A4
:105930002BFB9FED270B53EC102BCDE904019DEDC4
:10594000040B51EC100B00F091F841EC1F0B9DED96
:105950001B0AFFF77DFD054600F0C3FA53EC1F2B31
:10596000CDE906019DED060B51EC100B00F00CFB90
:1059700041EC1E0B1FED3C0B53EC102B00F004FB15
:1059800041EC1D0B53EC1C2B00F0FEFA41EC1B0B01
:105990001FED410B53EC102B00F068F841EC1A0B93
:1059A00053EC192B00F062F8CDE908019DED080BCE
:1059B00051EC100B00F066FA044607480068846357
:1059C0000BB0BDEC108B3FBD000000000000F83FA5
:1059D0000000000000805140B803002010B50029ED
:1059E0000AD00878002807D005487844FBF726F944
:1059F000002801D0002010BD0248784410BD0000EE
:105A00003E0B0000360B000021F00042A2F1605274
:105A1000B2F5801F01F0004328BFD2F17F6C0BD993
:105A20005FEA001C43EAC20242EB507018BF7047A5
:105A300028BF20F001007047B2F5801FBCBF184698
:105A400070474FEA410C1CF5001F02D2084600F0D7
:105A5000F9BC70B500F042FB00000089FFF7F6BF0B
:105A60004FF00040A0F580007047000010B591EAAB
:105A7000030F48BF83F0004300F18C83841A71EB5D
:105A8000030C05D2121943EB0C03001B61EB0C0154
:105A9000DFF824E14FEA1154A4EB135C1EEA430F34
:105AA00018BF9EEA445F73D023EA0E03DCF1200E98
:105AB00021EA045143F4801332D322FA0CFE10EB96
:105AC0000E0023FA0CFE41EB0E01CCF1200E03FA7E
:105AD0000EFE10EB0E0051F10001B1F5801FCCF16C
