:020000040800F2
:10000000080C002031020008A12B00089B270008E3
:100010009D2B0008E9080008ED37000800000000EB
:10002000000000000000000000000000552D000846
:10003000DB09000800000000A32B0008572D000872
:100040004B0200084B0200084B0200084B0200085C
:100050004B0200084B0200084B0200084B0200084C
:100060004B0200084B0200084B0200084B0200083C
:100070004B0200084B0200084B0200084B0200082C
:100080004B0200084B0200084B0200084B0200081C
:100090004B0200084B0200084B0200084B0200080C
:1000A0004B0200084B0200084B0200084B020008FC
:1000B000792E00084B0200084B0200084B02000892
:1000C0004B0200084B0200084B0200084B020008DC
:1000D0004B020008953500084B02000879360008ED
:1000E0004B0200084B0200084B0200084B020008BC
:1000F0004B0200084B0200084B0200084B020008AC
:100100004B0200084B0200084B0200084B0200089B
:100110004B0200084B0200084B0200084B0200088B
:100120004B0200084B0200084B0200084B0200087B
:100130004B0200084B0200084B0200084B0200086B
:100140004B0200084B0200084B0200084B0200085B
:100150004B0200084B020008ED0800089D3700081C
:100160004B0200084B0200084B0200084B0200083B
:100170004B0200084B0200084B0200080000000080
:100180004B0200084B02000800F002F800F041F8B2
:100190000AA090E8000C82448344AAF10107DA45E2
:1001A00001D100F036F8AFF2090EBAE80F0013F0F3
:1001B000010F18BFFB1A43F0010318473453000026
:1001C00054530000103A24BF78C878C1FAD85207B7
:1001D00024BF30C830C144BF04680C6070470000C1
:1001E0000023002400250026103A28BF78C1FBD840
:1001F000520728BF30C148BF0B607047642900F028
:10020000F780002070471FB505F057F91FBD10B5E6
:1002100010BD00F0CAF91146FFF7F5FF03F078FCB6
:1002200000F0E8F903B4FFF7F2FF03BC00F0F0F9C7
:100230000948804709480047FEE7FEE7FEE7FEE77A
:10024000FEE7FEE7FEE7FEE7FEE7FEE704480549B6
:10025000054A064B70470000152E0008890100086A
:1002600008060020080C00200808002008080020CC
:1002700053EA020C00F069802DE9F04B4FF00006C4
:10028000002B1FBFB3FA83F503FA05F424FA05F631
:100290005E4012BF1643B2FA82F502FA05F4C5F1C8
:1002A00020051EBF22FA05FC44EA0C04203556EA5C
:1002B000044C4FEA144418BF641C4FF000084FF080
:1002C0000009904271EB030C39D3002919BFB1FA30
:1002D00081F701FA07F6B0FA80F700FA07F6C7F1DE
:1002E00020071EBF20FA07FC46EA0C062037B6FBA3
:1002F000F4FCA7EB0507103F07F01F0BCBF120061E
:100300000CFA0BFB2CFA06F644BFB3460026202F4E
:10031000A4BF5E464FF0000B5BEA060C08BF4FF02F
:10032000010B19EB0B09ABFB027C48EB0608C01B69
:1003300006FB02CC0BFB03CC71EB0C01C1E70B46B7
:10034000024641464846BDE8F08B13B54FF0000029
:100350004FF00001AFF30080BDE81C407047000083
:100360000FB41CB5074B06AA7B446946009005985C
:1003700000F003F90020694600F012F91CBC5DF89A
:1003800014FB0000350200002DE9F0410E46044642
:10039000002020622046E168884730B3252805D038
:1003A000D4E901219047206A401CF2E7E168204629
:1003B00000278847050018D0A5F14100192802D868
:1003C00020354FF400673246294620462760FFF764
:1003D00015FF40B1012804D0F61D26F007060836A7
:1003E000D8E7361DD6E72846DAE7206ABDE8F0816F
:1003F0002DE9F0410646002410687529314616A5FE
:1004000010D0AFF30080002802DA404213A507E0C5
:1004100031688A0701D512A502E0490704D511A564
:10042000012401E0AFF3008000210A2206F1240735
:1004300009E0B0FBF2FCB0FBF2F302FB1C00303031
:1004400078541846491C0028F3D123462A463046E2
:10045000BDE8F04100F032B8000000002D000000BF
:100460002B000000200000004FF0000200B51346F2
:1004700094469646203922BFA0E80C50A0E80C50C4
:10048000B1F12001BFF4F7AF090728BFA0E80C5075
:1004900048BF0CC05DF804EB890028BF40F8042B6E
:1004A00008BF704748BF20F8022B11F0804F18BFDB
:1004B00000F8012B70477047704770472DE9F047EF
:1004C0000D4699469246044600F1240801688806C4
:1004D00004D5E06921F01001216000E00120A8426C
:1004E00001DD471B00E00027A1697A1902EB090032
:1004F000081AA0612078C00602D42046AFF300801D
:10050000002608E0D4E901211AF806009047206A85
:10051000401C761C20624E45F4DB2078C0060AD5CC
:100520002046AFF3008006E0D4E901213020904757
:10053000206A401C2062381EA7F10107F4DC07E0A6
:10054000D4E9012118F805009047206A401C206278
:10055000281EA5F10105F3DC2046AFF300802078CA
:10056000000602D50220BDE8F0870120FBE700006D
:1005700001694A1C02610878704700B58FB0CDE967
:1005800001310021059105497944CDE90310114657
:100590006846FFF7F9FE0FB000BD0000E5FFFFFF62
:1005A0000A6802F8010B0A607047754600F02CF8E3
:1005B000AE4605006946534620F00700854618B050
:1005C00020B5FFF743FEBDE820404FF000064FF096
:1005D00000074FF000084FF0000B21F00701AC4678
:1005E000ACE8C009ACE8C009ACE8C009ACE8C00997
:1005F0008D46704710B50446AFF300802046BDE835
:100600001040FFF70FBE000000487047A40500200F
:1006100001491820ABBEFEE726000200704700002B
:1006200010B501221021024800F09DFC10BD000011
:100630000000024010B500221021024800F093FC97
:1006400010BD0000000002407047000010B50122FC
:100650001146024800F087FC10BD00000004024073
:1006600010B500220121024800F07DFC10BD000001
:1006700000040240704710B5044603E04FF47A705E
:1006800000F006F8201EA4F101018CB2F6D110BDD5
:1006900070B5034600BF00BF0020002200BF4FF02E
:1006A000E0267569A82603FB06F44FF0E026B16941
:1006B00010E04FF0E026B06988420BD0884202D2A9
:1006C0000E1A324402E02E1A0E4432440146A2426F
:1006D00000D300E0EDE700BF70BD10B50024FFF7C8
:1006E000B3FFFFF7C7FF03F09FF8044303F030F9AF
:1006F0000443204610BD00002DE9FC4105460E468E
:100700001746002000900190FFF794FF922000F020
:10071000D1F806226946122000F0ACF8FFF780FFFE
:100720009DF80100000200B29DF8001040EA0104AB
:1007300000EE104AB8EEC00A4C48D0ED000A20EE98
:10074000200A86ED000A9DF80300000200B29DF821
:10075000021040EA010400EE104AB8EEC00A434815
:10076000D0ED000A20EE200A86ED010A9DF8050072
:10077000000200B29DF8041040EA010400EE104AA5
:10078000B8EEC00A3948D0ED000A20EE200A86ED06
:10079000020AFFF765FF08226946002000F06AF8A8
:1007A000FFF754FF9DF800000F2838D19DF8030093
:1007B000000200B29DF8021040EA010400EE104A67
:1007C000B8EEC00A2A48D0ED000A20EE200A85EDD6
:1007D000000A9DF80500000200B29DF8041040EAEE
:1007E000010400EE104AB8EEC00A2148D0ED000A1C
:1007F00020EE200A85ED010A9DF80700000200B2F4
:100800009DF8061040EA010400EE104AB8EEC00A56
:100810001748D0ED000A20EE200A85ED020AFFF706
:1008200009FFA22000F046F802226946222000F0CB
:1008300021F8FFF7F5FE9DF80000C0009DF80110BB
:1008400040EA6114B4F5806F02DBA4F5006004B2E5
:1008500000EE104AF8EEC00AB4EE001AB3EE070A32
:1008600000EE810A87ED000ABDE8FC814800002007
:100870004C00002070B506460C46154646F0800038
:1008800000F018F806E0552000F014F82070641C01
:10089000681EC5B2002DF6D170BD70B504460D4678
:1008A00044F0800000F006F8552000F003F82870AE
:1008B00070BD000001B582B04FF47A70012301AA27
:1008C00002A90090024801F085F89DF804000EBDD1
:1008D0002C04002070B505460C462846FFF7EAFFB9
:1008E0002046FFF7E7FF70BD00BFFEE710B50248E6
:1008F00000F086F810BD00004C0100200146087889
:1009000010381823B0FBF3F20848805CC865032A4E
:1009100005D908686FF30900001D886503E00868C1
:100920006FF309008865886D70470000CE54000899
:10093000014600208A6A8B69CBB932B1012A0DD0F9
:10094000022A03D0032A10D10EE000BFCB6A03F0C5
:100950008073B3F1807F00D1012007E0CB6AB3F14F
:10096000C07F00D1012001E000E000BF34E08B69CE
:10097000B3F5005F1AD132B1012A07D0022A03D0A1
:10098000032A11D10AE000BF01200EE0CB6A03F078
:100990008073B3F1807F00D1012006E0CB6AB3F110
:1009A000C07F00D1012000E000BF15E032B1012A74
:1009B00005D0022A04D0032A0CD103E000BF00BFF7
:1009C000012008E0CB6A03F08073B3F1807F00D18F
:1009D000012000E000BF00BF704770477047000073
:1009E00005480068416A0548006840F2712250439A
:1009F00001EBC00070470000AC0300202C00002079
:100A0000F8B50446002000908C4800684FF4165159
:100A1000B0FBF1F7A56D2E6894F85C1008208840B3
:100A2000304098B12068006800F0040070B1206880
:100A3000006820F004002168086094F85C10082029
:100A40008840A860606D40F00100606594F85C101B
:100A500001208840304068B12068406900F0800083
:100A600040B194F85C1001208840A860606D40F0AF
:100A70000200606594F85C1004208840304068B142
:100A80002068006800F0020040B194F85C10042077
:100A90008840A860606D40F00400606594F85C10C8
:100AA00010208840304078B32068006800F00800CB
:100AB00050B394F85C1010208840A860206800684B
:100AC00000F4802080B12068006800F4002028B97C
:100AD000206CC8B12046216C884715E0A06C98B105
:100AE0002046A16C88470FE02068006800F4807001
:100AF00028B92068006820F0080021680860206C90
:100B000010B12046216C884794F85C102020884062
:100B10003040002865D02068006800F010000028F0
:100B20005FD094F85C1020208840A86094F83500CD
:100B3000052828D12068006820F016002168086088
:100B40002068406920F0800021684861206C08B965
:100B5000A06C28B12068006820F0080021680860B7
:100B600094F85C103F208840A86000BF002084F803
:100B7000340000BF012084F83500206D10B12046FC
:100B8000216D8847F8BD2068006800F4802080B19E
:100B90002068006800F4002028B9606C10B120467D
:100BA000616C88471DE0E06BD8B12046E16B884757
:100BB00017E02068006800F4807068B92068006859
:100BC00020F010002168086000BF002084F8340085
:100BD00000BF012084F83500E06B10B12046E16BC6
:100BE0008847606D38B3606D00F00100F0B10520FA
:100BF00084F835002068006820F001002168086052
:100C000000BF0098401C0090B84200D905E0206861
:100C1000006800F001000028F3D100BF00BF0020F1
:100C200084F8340000BF012084F83500E06C10B176
:100C30002046E16C884700BFA4E700004000002088
:100C40002DE9F0410446002500F094F9074614B957
:100C50000120BDE8F081606A00B100BF00BF002044
:100C600084F8340000BF022084F835002068006852
:100C700020F00100216808600AE000F07BF9C01B49
:100C8000052805D920206065032084F83500E0E7B9
:100C90002068006800F001000028EED12068056897
:100CA00021480540D4E901010843E168084321696E
:100CB000084361690843A1690843E1690843216A5F
:100CC00008430543606A042803D1D4E90B010843B3
:100CD0000543206805602068456925F00705606ABE
:100CE0000543606A04280DD1A06A0543E06A48B153
:100CF0002046FFF71DFE28B140206065012084F8E2
:100D00003500A6E7206845612046FFF7F7FD064657
:100D100094F85C103F208840B0600020606501209E
:100D200084F83500002094E73F8010F070B5044649
:100D300000F020F906462546681C10B104480078EA
:100D4000054400BF00F016F9801BA842FAD370BD1D
:100D50003C000020F8B502460B4600250024002088
:100D60000021DCE0012606FA01F51E6806EA05040A
:100D7000AC4273D15E68022E02D05E68122E13D18F
:100D8000CF0802F1200656F827004E07F70E0F266F
:100D9000BE40B0434F07FF0E1E69BE403043CF0830
:100DA00002F1200646F8270010684F000326BE40D7
:100DB000B0431E7906F003064F00BE40304310607A
:100DC0005E68012E08D05E68022E05D05E68112E86
:100DD00002D05E68122E13D190684F000326BE40E9
:100DE000B0434F00DE68BE4030439060506801263B
:100DF0008E40B0431E79C6F300168E4030435060DB
:100E0000D0684F000326BE40B0434F009E68BE40EE
:100E10003043D0605E6806F08056B6F1805F7DD1C9
:100E200000BF00260096404E366846F480463E4F8E
:100E30003E603E46366806F48046009600BF00BF1E
:100E40003A4E8F0856F827008E07370F0F26BE4000
:100E5000B043374EB24202D1002624E05EE0354E68
:100E6000B24201D101261EE0334EB24201D1022628
:100E700019E0324EB24201D1032614E0304EB242A4
:100E800001D104260FE02F4EB24201D105260AE01F
:100E90002D4EB24201D1062605E02C4EB24201D1C0
:100EA000072600E008268F073F0FBE4030431F4E45
:100EB0008F0846F82700264E3068A0435E6806F487
:100EC0008036B6F5803F00D12043214E3060361D7C
:100ED0003068A0435E6806F40036B6F5003F00D1E6
:100EE00020431B4E361D3060361D3068A0435E68BF
:100EF00006F48016B6F5801F00D12043144E083644
:100F00003060361D3068A0435E6806F40016B6F502
:100F1000001F00D120430E4E0C363060491C1029B2
:100F2000FFF420AFF8BD000044380240083801400B
:100F3000000002400004024000080240000C024091
:100F4000001002400014024000180240001C024041
:100F5000003C014042690A408A4202D10A0482618F
:100F600000E0816170470AB1816101E00B04836197
:100F700070470000014800687047000034000020FE
:100F8000034800680349097808440149086070472C
:100F9000340000203C00002010B50D48006840F4EB
:100FA00000700B4908600846006840F480600860E3
:100FB0000846006840F480700860032000F0A2F842
:100FC000002000F007F800F02BF8002010BD000012
:100FD000003C024070B504460E4800784FF47A7128
:100FE000B1FBF0F00C490968B1FBF0F5284600F0C0
:100FF00006FE08B1012070BD102C07D20022214648
:10100000501E00F041F80548046001E00120F2E7BD
:101010000020F0E73C0000204000002038000020C5
:1010200008B500BF002000900E48006840F48040E2
:101030000C4908600846006800F48040009000BF3A
:1010400000BF00BF00200090081F006840F08050E3
:10105000091F08600846006800F08050009000BF3B
:1010600000BF08BD4438024001460846002809DB9D
:1010700000F01F0301229A4043099B0003F1E02383
:10108000C3F8002100BF70472DE9F05F80460D4690
:101090001646002702F0ACFB074639462A4633467F
:1010A00001F00700C0F1070ABAF1040F02D94FF0AE
:1010B000040A01E0C0F1070AD14600F1040ABAF1BE
:1010C000070F02D24FF0000A01E0A0F1030AD44654
:1010D0004FF0010A0AFA09FAAAF1010A0AEA020A19
:1010E0000AFA0CFA4FF0010B0BFA0CFBABF1010BF7
:1010F0000BEA030B4AEA0B042146404602F080FB50
:10110000BDE8F09F00BF00F00702064B19684FF6DC
:10111000FF031940044B0B4343EA0221014B1960C2
:1011200000BF70470CED00E00000FA0570B5044602
:101130000D460CB9012070BD5848006800F00F0042
:10114000A84209D255490D700846006800F00F000A
:10115000A84201D00120EEE7207800F0020002282A
:101160001DD1207800F00400042805D14C48006807
:1011700040F4E0504A490860207800F00800082850
:1011800005D14748006840F460404549086044483C
:10119000006820F0F000A168084341490860207809
:1011A00000F00100A8B36068012807D13C48083866
:1011B0000068C0F34040B8B90120BCE7606802286D
:1011C00002D06068032807D1354808380068C0F3AA
:1011D000406048B90120AEE7314808380068C0F3E4
:1011E000400008B90120A6E72D48006820F0030060
:1011F000616808432A490860FFF7BCFE064609E01B
:10120000FFF7B8FE801B41F28831884202D90320E3
:1012100091E707E02248006800F00C006168B0EB3D
:10122000810FEDD11D48006800F00F00A84209D9D8
:101230001A490D700846006800F00F00A84201D05E
:10124000012078E7207800F00400042807D1144832
:10125000006820F4E050E1680843114908602078F4
:1012600000F00800082808D10D48006820F460400C
:10127000216940EAC1000A49086000F03DF80849C8
:101280000968C1F30311074A515CC8400649086068
:101290000020FFF79FFE00204DE70000003C0240C9
:1012A00008380240D6540008400000200148006879
:1012B000704700004000002000B5FFF7F7FF044929
:1012C0000968C1F38221034A515CC84000BD000097
:1012D00008380240E654000800B5FFF7E7FF04496C
:1012E0000968C1F34231034A515CC84000BD0000A7
:1012F00008380240E65400082DE9F0470024002594
:101300000026A1462548006800F00C0020B1042802
:1013100005D008283AD105E0DFF8849039E0DFF8FD
:10132000849036E01D48001F006800F03F041B4811
:10133000001F006800F4800078B11A481749091F9F
:101340000968C1F38811A0FB017001462246002301
:101350003846FEF78DFF05460EE011480F49091F7C
:101360000968C1F38811A0FB0170014622460023E1
:101370003846FEF77DFF05460848001F0068C0F3A9
:101380000140401C4600B5FBF6F902E0DFF8109082
:1013900000BF00BF4846BDE8F087000008380240A3
:1013A0000024F400001BB700F8B504460CB9012076
:1013B000F8BD207800F00100002874D0F9480068DA
:1013C00000F00C0004280DD0F648006800F00C0076
:1013D000082813D1F348001F006800F48000B0F51E
:1013E000800F0BD1EF4808380068C0F34040002858
:1013F00059D06068002856D10120D9E700BF606845
:10140000B0F5803F08D1E7480838006840F48030E4
:10141000E449083908601EE06068B0F5A02F0DD1DE
:10142000E0480838006840F48020DE490839086048
:101430000846006840F4803008600CE0D94808385D
:10144000006820F48030D7490839086008460068F1
:1014500020F48020086000BF606890B1FFF78AFD2B
:10146000054606E0FFF786FD401B642801D90320EE
:101470009EE7CC4808380068C0F340400028F1D00F
:1014800011E0FFF777FD054606E0FFF773FD401B0F
:10149000642801D903208BE7C24808380068C0F3EC
:1014A00040400028F1D1207800F0020002285FD1EE
:1014B000BC48006800F00C0058B1BA48006800F061
:1014C0000C0008281CD1B748001F006800F48000F9
:1014D000B0B9B44808380068C0F3400020B1E068F3
:1014E000012801D0012063E7AE480838006820F0E9
:1014F000F800216940EAC100AA490839086037E0CC
:10150000E06800B30120A8490860FFF733FD0546F5
:1015100006E0FFF72FFD401B022801D9032047E713
:10152000A04808380068C0F340000028F1D09D486A
:101530000838006820F0F800216940EAC1009949A4
:101540000839086014E0002097490860FFF712FD91
:10155000054606E0FFF70EFD401B022801D90320D7
:1015600026E7904808380068C0F340000028F1D111
:10157000207800F0080008282CD16069A8B101206B
:101580008A490860FFF7F6FC054606E0FFF7F2FC23
:10159000401B022801D903200AE782486C3000680A
:1015A000C0F340000028F1D014E000207F4908601B
:1015B000FFF7E0FC054606E0FFF7DCFC401B0228D5
:1015C00001D90320F4E677486C300068C0F340008E
:1015D0000028F1D1207800F00400042870D1002602
:1015E00070483830006800F0805090B900BF00208B
:1015F00000906C483830006840F0805069493831BC
:1016000008600846006800F08050009000BF00BFEE
:1016100001266748006800F48070B0B9644800682B
:1016200040F4807062490860FFF7A4FC054606E0BC
:10163000FFF7A0FC401B022801D90320B8E65C4854
:10164000006800F480700028F2D000BFA068012874
:1016500008D154486830006840F0010051496831B1
:1016600008601DE0A06805280DD14E48683000686C
:1016700040F004004B49683108600846006840F0BB
:10168000010008600CE047486830006820F0010065
:101690004449683108600846006820F0040008608A
:1016A00000BFA068A8B1FFF765FC054609E0FFF799
:1016B00061FC401B41F28831884202D9032077E661
:1016C00026E0384868300068C0F340000028EED0BB
:1016D00013E0FFF74FFC054608E0FFF74BFC401B0B
:1016E00041F28831884201D9032061E62D486830F3
:1016F0000068C0F340000028EFD1012E07D129482F
:101700003830006820F0805026493831086000BF2A
:10171000A069B8B32348006800F00C0008285ED028
:10172000A069022846D100201F490866FFF722FC65
:10173000054606E0FFF71EFC401B022801D90320E6
:1017400036E6184808380068C0F340600028F1D138
:10175000D4E907010843616A40EA81110122A06AC5
:10176000C2EB500041EA00412C20005D41EA0060DC
:101770000C49091F086001200B490866FFF7FAFBB6
:10178000054607E02DE0FFF7F5FB401B022801D9D5
:1017900003200DE6034808380068C0F340600028C5
:1017A000F1D01EE00838024000004742800E474258
:1017B0000070004000200C490866FFF7DBFB05467F
:1017C00006E0FFF7D7FB401B022801D90320EFE515
:1017D00006480068C0F340600028F2D101E0012013
:1017E000E6E50020E4E50000000047420038024042
:1017F00010B504460CB9012010BD606A00B900BFE5
:101800000021A16294F8510028B9002084F850000A
:10181000204600F033F8022084F851002068006868
:1018200020F0400021680860D4E901010843E16824
:1018300008432169084361690843218B01F4007161
:101840000843E1690843216A0843A16A0843216803
:1018500008600421A06901EA1040616A0843216818
:1018600048602068C06920F400602168C8610020D9
:101870006065012084F851000020BDE710B586B0F6
:101880000446142101A8FEF7EFFD4B492068884269
:101890007ED100BF002000904848006840F480508E
:1018A000464908600846006800F48050009000BF78
:1018B00000BF00BF0020009040481438006840F08E
:1018C00002003E49143908600846006800F0020032
:1018D000009000BF00BF00BF0020009008460068D5
:1018E00040F0010008600846006800F00100009028
:1018F00000BF00BF1820019002200290002003903A
:10190000032004900520059001A92D48FFF722FA35
:101910008020019002200290002003900320049078
:101920000520059001A92748FFF714FA2648274902
:1019300008604FF0C0604860002124488160C160A9
:101940004FF480610161002141618161C1614FF407
:101950004031016200214162FFF772F908B1FFF7DF
:101960003DF800BF1948E064846300BF1648183092
:10197000174908604FF0C0604860402114488160FA
:101980000021C1604FF4806101610021416100E0EC
:1019900010E08161C1614FF40031016200214162B8
:1019A000FFF74EF908B1FFF719F800BF0848A06427
:1019B000846300BF06B010BD0030014044380240CF
:1019C0000004024000000240406402408404002001
:1019D000E40400202DE9FF5F0446884691461D4639
:1019E0000E9E012002900020019000BF94F850004C
:1019F000012803D1022004B0BDE8F09F012084F843
:101A0000500000BFFFF7B6FA074694F851B060687F
:101A10000390AA46BBF1010F0BD00398B0F5827F6B
:101A200004D1A06810B9BBF1040F02D002200190CC
:101A3000DBE0B8F1000F03D0B9F1000F00D015B909
:101A400001200190D1E094F85100042802D0052033
:101A500084F8510000206065C4F83890E587A587B8
:101A6000C4F83080E586A58620646064206800683C
:101A700000F04000402805D02068006840F0400099
:101A800021680860E068B0F5006F4AD1606810B165
:101A9000BAF1010F09D1206B00882168C860206B62
:101AA000801C2063E08E401EE08633E02068806862
:101AB00000F00200022810D1E08E70B102980128D7
:101AC0000BD1206B00882168C860206B801C2063CC
:101AD000E08E401EE086002002902068806800F0C2
:101AE000010068B1E08F58B12068C068A16B088020
:101AF000A06B801CA063E08F401EE0870120029055
:101B0000FFF738FAC01BB04204D3701C10B1032099
:101B100001906AE0E08E0028C8D1E08F0028C5D18E
:101B20004AE0606810B1BAF1010F09D1206B00786A
:101B300021680873206B401C2063E08E401EE08605
:101B400034E02068806800F00200022810D1E08EA6
:101B500070B1029801280BD1206B007821680873BE
:101B6000206B401C2063E08E401EE0860020029027
:101B70002068806800F0010068B1E08F58B12068EB
:101B8000C068A16B0870A06B401CA063E08F401E72
:101B9000E08701200290FFF7EDF9C01BB04201D3AE
:101BA000701C00B916B9032001901EE0E08E0028D9
:101BB000C7D1E08F0028C4D13A463146204601F013
:101BC0003FF820B101200190202060650DE0A06861
:101BD00050B900BF002000902068C06800902068C5
:101BE0008068009000BF00BF00BF012084F8510052
:101BF00000BF002084F8500000BF0198FBE670B5DC
:101C000004462546681EB0F1807F01D301200FE015
:101C1000681E4FF0E02148610F214FF0FF3001F0C6
:101C2000EFFD00204FF0E0218861072008610020CF
:101C300070BD7047704710B50346002200BF93F88F
:101C40003C00012801D1022010BD012083F83C0096
:101C500000BF22F0FF00CC6840EA040222F440708A
:101C60008C6840EA040222F480604C6840EA040276
:101C700022F400600C6840EA040222F480500C69EF
:101C800040EA040222F400504C6940EA040222F4C3
:101C90008040CC6940EA04021868426400BF00201A
:101CA00083F83C0000BF00BFCEE710B5024600BF7E
:101CB00092F83C00012801D1022010BD012082F8D9
:101CC0003C0000BF022082F83D00106843681068A5
:101CD000846823F070030868034324F08004486894
:101CE00004431068436010688460012082F83D005E
:101CF00000BF002082F83C0000BF00BFDDE710B548
:101D000004460CB9012010BD94F83D0028B900200C
:101D100084F83C00204600F00DF8022084F83D00D5
:101D2000211D206801F0B6F8012084F83D00002054
:101D3000E9E7000038B504462D49206888420FD1F4
:101D400000BF002000902B48006840F001002949A6
:101D500008600846006800F00100009000BF46E0FF
:101D60002549206888420FD100BF002000902148FB
:101D7000006840F002001F4908600846006800F053
:101D80000200009000BF32E02068B0F1804F1AD10D
:101D900000BF002000901748001F006840F00100BD
:101DA0001449091F08600846006800F0010000900F
:101DB00000BF00BF002211461C20FFF765F91C2060
:101DC000FFF752F913E00D49206888420FD100BF98
:101DD000002000900748006840F400300549086082
:101DE0000846006800F40030009000BF00BF38BD16
:101DF000000001404438024000040140004401401A
:101E00000146022081F83D000868806800F0070262
:101E1000062A05D00868006840F001000B681860C9
:101E2000012081F83D000020704701460868C06825
:101E300040F001000B68D8600868806800F0070275
:101E4000062A05D00868006840F001000B68186099
:101E5000002070472DE9F04104460D4600BF94F87C
:101E60003C00012802D10220BDE8F081012084F865
:101E70003C0000BF022084F83D002068866826F000
:101E8000770626F47F46206886602868502833D07D
:101E90000CDC202850D004DC00284BD0102851D175
:101EA00049E0302849D040284CD139E060282DD075
:101EB000702807D0B0F5805F03D0B0F5005F41D146
:101EC0000DE040E0D5E902136A68206801F05FF890
:101ED0002068866846F077062068866033E0D5E99A
:101EE00002136A68206801F052F82068806840F4A4
:101EF00080402168886026E0EA686968206801F00F
:101F000037F95021206801F04DF81CE0EA68696853
:101F1000206801F040F96021206801F043F812E0E8
:101F2000EA686968206801F023F94021206801F01F
:101F300039F808E000BF00BF00BF2968206801F041
:101F400031F800E000BF00BF012084F83D0000BF71
:101F5000002084F83C0000BF00BF85E7704710B543
:101F6000044620680069C0F34000D8B12068C0680A
:101F7000C0F34000B0B16FF0020021680861012099
:101F800020772068806900F0030018B12046FFF731
:101F9000E5FF05E0204600F04DF9204600F0EAF9A3
:101FA0000020207720680069C0F38000D8B1206845
:101FB000C068C0F38000B0B16FF004002168086110
:101FC000022020772068806900F4407018B1204614
:101FD000FFF7C4FF05E0204600F02CF9204600F092
:101FE000C9F90020207720680069C0F3C000D8B18B
:101FF0002068C068C0F3C000B0B16FF0080021686D
:102000000861042020772068C06900F0030018B13F
:102010002046FFF7A3FF05E0204600F00BF920461D
:1020200000F0A8F90020207720680069C0F30010B4
:10203000D8B12068C068C0F30010B0B16FF01000D4
:1020400021680861082020772068C06900F440708A
:1020500018B12046FFF782FF05E0204600F0EAF8BD
:10206000204600F087F9002020772068006900F002
:10207000010058B12068C06800F0010030B16FF075
:10208000010021680861204600F0A2F9206800697B
:10209000C0F3C01058B12068C068C0F3C01030B1A0
:1020A0006FF08000216808612046FFF7C2FD2068BC
:1020B0000069C0F3801058B12068C068C0F3801078
:1020C00030B16FF0400021680861204600F081F9CE
:1020D00020680069C0F3401058B12068C068C0F3A0
:1020E000401030B16FF02000216808612046FFF7F2
:1020F000A1FD10BD10B586B00446142101A8FEF75D
:10210000B3F94449206888421FD100BF00200090E5
:102110004148006840F010003F49086008460068E8
:1021200000F01000009000BF00BF4FF4D4400190B9
:1021300002200290012003900220049001200590CB
:1021400001A93648FEF706FE61E03549206888425D
:102150003BD100BF002000902F48006840F4807001
:102160002D4908600846006800F48070009000BFA8
:1021700000BF00BF002000900846006840F0040047
:1021800008600846006800F00400009000BF00BF2F
:10219000C0200190022002900120039002200490B0
:1021A0000320059001A91F48FEF7D4FD40200190AF
:1021B0000220029001200390022004900320059049
:1021C00001A91948FEF7C6FD21E018492068884298
:1021D0001DD100BF002000900F48006840F0200093
:1021E0000D4908600846006800F02000009000BF1C
:1021F00000BF4020019002200290012003900220A5
:1022000004900320059001A90948FEF7A3FD06B03C
:1022100010BD0000000001403038024000100240B4
:102220000004014000200240000802400044014038
:1022300000140240704770B504460D46164600BFB4
:1022400094F83C00012801D1022070BD012084F8DF
:102250003C0000BF022084F83D0036B1042E1BD0A4
:10226000082E31D00C2E5ED145E02946206800F0C2
:10227000A3FE2068806940F008002168886120681A
:10228000806920F0040021688861206880692969DC
:1022900008432168886147E02946206800F0C4FEB1
:1022A0002068806940F40060216888612068806946
:1022B00020F480602168886120688069296940EA8B
:1022C0000120216888612FE02946206800F0EAFE9D
:1022D0002068C06940F008002168C8612068C069B2
:1022E00020F004002168C8612068C069296908439A
:1022F0002168C86118E02946206800F00FFF2068B7
:10230000C06940F400602168C8612068C06920F499
:1023100080602168C8612068C069296940EA01209D
:102320002168C86100E000BF00BF012084F83D00C3
:1023300000BF002084F83C0000BF00BF85E710B557
:1023400004460CB9012010BD94F83D0028B90020C6
:1023500084F83C00204600F00CF8022084F83D0090
:10236000211D206800F096FD012084F83D0000202A
:10237000E9E770477047000070B504460E46012239
:102380003146206800F0F2FD0F492068884203D0F2
:102390000E492068884201D1012000E0002028B1C8
:1023A0002068406C40F400402168486420688068E0
:1023B00000F00705062D05D02068006840F00100F8
:1023C00021680860002070BD000001400004014049
:1023D0007047704710B504460CB9012010BDA069C4
:1023E00000B100E000BF94F8390028B9002084F85B
:1023F0003800204600F028F8242084F839002068AE
:10240000C06820F400502168C860204600F0D8FE63
:102410002068006920F490402168086120684069C4
:1024200020F02A00216848612068C06840F400500C
:102430002168C8600020E063202084F8390084F817
:102440003A000020CAE7000010B586B00446142107
:1024500001A8FEF709F88F492068884278D100BFAB
:10246000002000908C48006840F010008A49086005
:102470000846006800F01000009000BF00BF00BFD9
:102480000020009084481438006840F0020082491F
:10249000143908600846006800F00200009000BF90
:1024A00000BF00BF002000900846006840F0010017
:1024B00008600846006800F00100009000BF00BFFF
:1024C00080200190022002900120039003200490BC
:1024D0000720059001A97148FEF73CFC4FF40070FD
:1024E0000190022002900120039003200490072015
:1024F000059001A96A48FEF72DFC6A486A49086000
:102500004FF0006048604021674881600021C16051
:102510004FF480610161002141618161C1614FF42B
:102520004031016200214162FEF78AFB08B1FEF7EB
:1025300055FA00BF5C482063846300BF0022114647
:102540002520FEF7A1FD2520FEF78EFD9FE0FFE789
:1025500056492068884239D100BF002000904E487B
:10256000006840F020004C4908600846006800F010
:102570002000009000BF00BF00BF00200090464830
:102580001438006840F04000434914390860084698
:10259000006800F04000009000BF00BF4FF484408E
:1025A0000190022002900120039003200490082053
:1025B000059001A93E48FEF7CDFB002211464720B9
:1025C000FEF762FD4720FEF74FFD60E039492068C5
:1025D00088425CD100BF002000902F48001F006897
:1025E00040F480202C49091F08600846006800F468
:1025F0008020009000BF00BF00BF00200090264850
:102600001438006840F00400234914390860084673
:10261000006800F00400009000BF00BF4FF440606D
:1026200001900220029001200390032004900720D3
:10263000059001A92048FEF78DFB2048204908603D
:102640004FF00060486000211D488160C1604FF478
:10265000806101610021416181614FF48071C1613C
:102660004FF44031016200214162FEF7E9FA08B1FE
:10267000FEF7B4F900BF12486063846300BF002214
:1026800011462720FEF700FD2720FEF7EDFC06B0DF
:1026900010BD000000100140443802400004024018
:1026A00000000240B86402404C01002000140140C8
:1026B0000018024000480040000802402860024024
:1026C000CC0200202DE9F84304460D4616461F466D
:1026D0004FF0000994F8390020285CD105B116B9F3
:1026E0000120BDE8F88300BF94F83800012801D12B
:1026F0000220F6E7012084F8380000BF0020E063E4
:10270000212084F83900FEF735FC8146A684E68452
:102710002BE0E08C401EE084A068B0F5805F16D10D
:102720004B46002280212046009700F0FDFE08B1B4
:102730000320D6E7A846B8F80000C0F308002168D7
:102740004860206908B9AD1C0FE06D1C0DE04B46D8
:10275000002280212046009700F0E6FE08B1032009
:10276000BFE715F8010B21684860E08C0028D0D144
:102770004B46002240212046009700F0D5FE08B1CC
:102780000320AEE7202084F8390000BF002084F841
:10279000380000BFA5E70220A3E700BFFEE7000066
:1027A00008B500BF002000901648006840F40010F3
:1027B000144908600846006800F40010009000BF4B
:1027C00000BF00BF002000900846006840F4800071
:1027D00008600846006800F48000009000BF00BF59
:1027E000002211460C20FEF74FFC0C20FEF73CFCAB
:1027F000002211464620FEF747FC4620FEF734FC37
:1028000008BD00003038024000B587B0142102A88E
:10281000FDF72AFE00BF002001902748006840F025
:102820000100254908600846006800F00100019099
:1028300000BF00BF00BF002001900846006840F0C4
:10284000020008600846006800F00200019000BF26
:1028500000BF00BF002001900846006840F004005F
:1028600008600846006800F00400019000BF00BF47
:1028700000BF002001900846006840F0800008601A
:102880000846006800F08000019000BF00BF0122F0
:102890004FF4E0510948FEF766FB4FF4E050029018
:1028A0000120039004900220059002A90348FEF73E
:1028B00051FA07B000BD000030380240001C024051
:1028C00010B50F480F4908604FF48270486000212E
:1028D0000C488160C160022101610121416149020E
:1028E00081613821C16100210162416281620A2156
:1028F000C162FEF77DFF08B1FEF770F810BD000061
:10290000003001402C04002000B587B01C2168462F
:10291000FDF7AAFD1548164908600020486000210F
:102920001348816041F28731C160002101618161FA
:10293000FFF7E5F908B1FEF751F80D48FFF7FFFC86
:1029400008B1FEF74BF86020009000200190029043
:102950000490002269460648FFF76DFC08B1FEF7B7
:102960003DF80348FFF7C6FB07B000BD0044014037
:10297000EC03002000B595B0002011901290139048
:1029800014900F9010901C2108A8FDF76DFD2021D8
:102990006846FDF769FD384838490860A720486057
:1029A00000213648816044F61F61C1600021016149
:1029B00041618161FFF7A3F908B1FEF70FF84FF409
:1029C0008050119011A92D48FFF744FA08B1FEF785
:1029D00005F82A48FFF7B3FC08B1FDF7FFFF002018
:1029E0000F9010900FA92548FFF75FF908B1FDF788
:1029F000F5FF602008904FF4FA60099000200A90DB
:102A00000B900C900D900E90002208A91B48FFF728
:102A100012FC08B1FDF7E2FF042208A91748FFF7EE
:102A20000AFC08B1FDF7DAFF082208A91348FFF7EE
:102A300002FC08B1FDF7D2FF0C2208A90F48FFF7EE
:102A4000FAFB08B1FDF7CAFF002000900190029048
:102A5000039004904FF400500590002007906946C1
:102A60000648FFF7E8F808B1FDF7B8FF0348FFF79D
:102A700041FB15B000BD0000000001402C03002008
:102A800000B587B000200390049005900690019057
:102A900002904FF080401549086042F2CF00486034
:102AA00000211248816041F28731C160002101613B
:102AB00080218161FFF723F908B1FDF78FFF4FF403
:102AC0008050039003A90948FFF7C4F908B1FDF746
:102AD00085FF00200190029001A90448FFF7E5F866
:102AE00008B1FDF77BFF07B000BD0000AC0300207C
:102AF00010B50B480B4908604FF4E13048600021E5
:102B000008488160C16001610C214161002181613F
:102B1000C161FFF75FFC08B1FDF760FF10BD000069
:102B2000001001408C00002010B50B480B490860D4
:102B30000B484860002109488160C1604FF4806102
:102B400001610421416100218161C161FFF742FC03
:102B500008B1FDF743FF10BD00480040CC00002045
:102B6000A086010010B50B480B4908604FF4E13016
:102B70004860002108488160C16001610C21416109
:102B800000218161C161FFF725FC08B1FDF726FF37
:102B900010BD0000001401400C01002000BFFEE742
:102BA0007047704710B5234B1B685B6943F04003C7
:102BB000204C246863611F4B1B68DB6843F01003E3
:102BC0001C4C2468E3601C4B1B681B6823F001034A
:102BD000194C2468236007E0174B1B681B6823F01F
:102BE0000103154C24682360134B1B681B6803F01A
:102BF0000103002BF0D1114B0F4C2468A3600E4B46
:102C00001B68D8600C4B1B6819610B4B1B685A6022
:102C1000094B1B681B6843F48023074C246823601E
:102C2000054B1B681B6843F00103034C24682360B9
:102C300010BD0000CC000020CC0200200448004061
:102C40007CB504460D461646164800681821B0FBB0
:102C5000F1F01549B0FBF1F04FF47A71484301905F
:102C60006068B0F5827F0DD12B460022802120467E
:102C7000009600F01BF898B1606D40F02000606590
:102C800003207CBD00BF019800B908E00198401EF8
:102C9000019020688068C0F3C0100028F3D100BF05
:102CA0000020EEE74000002040420F002DE9F041F7
:102CB00004460E4617461D46DDF818803EE0681CA7
:102CC000D8B3FEF757F9A0EB0800A84200D2A5BB85
:102CD0002068406820F0E000216848606068B0F536
:102CE000827F0DD1A068B0F5004F03D0A068B0F589
:102CF000806F05D12068006820F0400021680860DE
:102D0000A06AB0F5005F0DD100BF2068006820F414
:102D10000050216808602068006840F40050216875
:102D2000086000BF012084F8510000BF002084F833
:102D3000500000BF0320BDE8F081FFE720688068F5
:102D40003040B04201D1012000E00020B842B6D1AD
:102D50000020F0E7704710B5FEF712F910BD000033
:102D600000B593B0302107A8FDF77EFB142102A81F
:102D7000FDF77AFB00BF002001902448006840F076
:102D80008050224908600846006800F08050019099
:102D900000BF00BF00BF002001901D48006840F444
:102DA00080401B4908600846006800F4804001909C
:102DB00000BF00BF012007900004089002200D9082
:102DC00041050E9106210F91A82110910221119128
:102DD0000421129107A8FEF7E7FA08B1FDF7FEFDFE
:102DE0000F20029002200390002004904FF4A05086
:102DF00005904FF480500690052102A8FEF796F941
:102E000008B1FDF7EBFD13B000BD000040380240F3
:102E1000007000401448006840F4700012490860D7
:102E20001248006840F001001049086000200F4976
:102E3000083108600D4800680D4908400B490860DA
:102E40000C48091D0860081F006820F48020091F35
:102E50000860002005490C3108604FF0006002490D
:102E6000803908607047000088ED00E000380240BB
:102E7000FFFFF6FE1030002410B50448FFF76FF88E
:102E800003480068401C0249086010BDAC030020E4
:102E90002C00002010B50268294B98420ED0B0F1EA
:102EA000804F0BD0274B984208D0274B984205D033
:102EB000264B984202D0264B984203D122F0700252
:102EC0004B681A431E4B984220D0B0F1804F1DD062
:102ED0001C4B98421AD01C4B984217D01B4B98425F
:102EE00014D01B4B984211D01A4B98420ED01A4B5B
:102EF00098420BD0194B984208D0194B984205D0F4
:102F0000184B984202D0184B984203D122F44072D9
:102F1000CB681A4322F080034C6943EA0402026042
:102F20008B68C3620B688362054B984202D0084BE2
:102F3000984201D10B6903630123436110BD000076
:102F4000000001400004004000080040000C004068
:102F5000000401400040014000440140004801409D
:102F600000180040001C00400020004030B501F077
:102F70001F05012404FA05F3046A9C430462046AF1
:102F800001F01F0502FA05F52C43046230BD30B58F
:102F90000C46816821F47F4142EA032525432943F9
:102FA000816030BD0A46816821F0700142F007035C
:102FB000194381607047000030B5056A25F00105AE
:102FC0000562026A4368846924F0700424F00304F3
:102FD0000D682C4322F002028D682A43104DA8424E
:102FE00000D103E00F4DA84206D100BF22F0080235
:102FF000CD682A4322F00402094DA84202D0094DAF
:10300000A84207D123F4807323F400734D692B4346
:103010008D692B43436084614D684563026230BD16
:10302000000001400004014030B5056A25F010059C
:103030000562026A4368846924F4E04424F440741D
:103040000D6844EA052422F020028D6842EA051248
:10305000124DA84200D103E0114DA84207D100BF94
:1030600022F08002CD6842EA051222F040020B4DA8
:10307000A84202D00A4DA84209D123F4806323F468
:1030800000634D6943EA85038D6943EA8503436024
:1030900084614D688563026230BD0000000001401C
:1030A0000004014030B5056A25F480750562026AA6
:1030B0004368C46924F0700424F003040D682C43B1
:1030C00022F400728D6842EA0522124DA84200D116
:1030D00003E0114DA84207D100BF22F40062CD6881
:1030E00042EA052222F480620A4DA84202D00A4D2B
:1030F000A84209D123F4805323F400534D6943EAD5
:1031000005138D6943EA05134360C4614D68C563C7
:10311000026230BD000001400004014030B5056A84
:1031200025F480550562036A4468C26922F4E042CE
:1031300022F440720D6842EA052223F400538D68A0
:1031400043EA0533084DA84202D0084DA84204D1F5
:1031500024F480444D6944EA85144460C2614D689A
:103160000564036230BD000000000140000401401E
:1031700030B50B461446026A056A25F00105056262
:10318000816921F0F00141EA041122F00A021A4398
:103190008161026230BD30B50B461446056A25F0E8
:1031A000100505628169026A21F4704141EA043127
:1031B00022F0A00242EA03128161026230BD0000E7
:1031C0002DE9F04104462068006920F44050E16890
:1031D0000843216808612169A068084361690843C0
:1031E000E16940EA01052068C06849F20C61884342
:1031F00028432168C8602068406920F44070A169B4
:10320000084321684861E069B0F5004F7ED1C449A8
:103210002068884203D0C349206888425DD1FEF708
:103220005BF800EBC00101EB001061684900B0FBE6
:10323000F1F06421B0FBF1F00601FEF74DF800EB70
:10324000C00101EB001061684900B0FBF1F7FEF727
:1032500043F800EBC00101EB001061684900B0FBCE
:10326000F1F06421B0FBF1F000EBC00101EB0010C4
:10327000A7EB8000322101EBC0006421B0FBF1F02C
:1032800000F0F80006EB4006FEF726F800EBC00160
:1032900001EB001061684900B0FBF1F7FEF71CF884
:1032A00000EBC00101EB001061684900B0FBF1F0D8
:1032B0006421B0FBF1F000EBC00101EB0010A7EBC3
:1032C0008000322101EBC0006421B0FBF1F000F07E
:1032D000070030442168886020E1FDF7EDFF00EB36
:1032E000C00101EB001061684900B0FBF1F06421FE
:1032F000B0FBF1F00601FDF7DFFF00EBC00101EBD1
:10330000001061684900B0FBF1F700E045E0FDF70F
:10331000D3FF00EBC00101EB001061684900B0FB76
:10332000F1F06421B0FBF1F000EBC00101EB001003
:10333000A7EB8000322101EBC0006421B0FBF1F06B
:1033400000F0F80006EB4006FDF7B6FF00EBC00109
:1033500001EB001061684900B0FBF1F7FDF7ACFF2D
:1033600000EBC00101EB001061684900B0FBF1F017
:103370006421B0FBF1F000EBC00101EB0010A7EB02
:103380008000322101EBC0006421B0FBF1F000F0BD
:103390000700304421688860C0E0614920688842A5
:1033A00003D06049206888425CD1FDF795FF00EBAF
:1033B000C00101EB001061688900B0FBF1F6FDF778
:1033C0008BFF00EBC00101EB001061688900B0FBCE
:1033D000F1F06421B0FBF1F000EBC00101EB001053
:1033E000A6EB8000322101EB00106421B0FBF1F06C
:1033F00000F0F006FDF770FF00EBC00101EB0010DC
:1034000061688900B0FBF1F06421B0FBF1F006EBDC
:103410000016FDF761FF00EBC00101EB00106168D1
:103420008900B0FBF1F7FDF757FF00EBC00101EB9E
:10343000001061688900B0FBF1F06421B0FBF1F08D
:1034400000EBC00101EB0010A7EB8000322101EB83
:1034500000106421B0FBF1F000F00F00304421684F
:1034600088605BE0FDF728FF00EBC00101EB001076
:1034700061688900B0FBF1F6FDF71EFF00EBC001AB
:1034800001EB001061688900B0FBF1F06421B0FB32
:10349000F1F000EBC00101EB0010A6EB800032213F
:1034A00001EB00106421B0FBF1F000F0F006FDF735
:1034B00003FF00EBC00101EB001061688900B0FB65
:1034C000F1F06421B0FBF1F006EB0016FDF7F4FE1D
:1034D00000EBC00101EB001061688900B0FBF1F75F
:1034E000FDF7EAFE00EBC00101EB00106168890006
:1034F000B0FBF1F06421B0FBF1F000EBC00101EB97
:103500000010A7EB8000322101EB00106421B0FB1A
:10351000F1F000F00F00304421688860BDE8F081D0
:1035200000100140001401402DE9F04104460D4611
:1035300017469846069E21E0701CF8B12EB1FDF7A3
:1035400019FDA0EB0800B04218D92068C06820F42B
:10355000D0702168C8602068406920F001002168AF
:103560004861202084F8390084F83A0000BF002028
:1035700084F8380000BF0320BDE8F08120680068AF
:103580002840A84201D1012000E00020B842D3D059
:103590000020F1E708B533480068006800F020001B
:1035A00000285ED02F4800684068C0B200909DF8A7
:1035B000000036282FD008DCA0F1300006284ED2BB
:1035C000DFE800F0232425262728392826D004DC2C
:1035D000372821D0382842D11FE073280BD0742817
:1035E0003DD1012020490870002020490870204862
:1035F0000021016034E001201C49087000201A49B4
:1036000008701C48002101602AE000BF00BF00BF15
:1036100000BF00BF00BF00BF00BF00BF124800785E
:1036200001280BD1124800F069FA0346042B00D19F
:1036300016E09DF800000E49C8540FE00B480078D2
:1036400001280BD10B4800F059FA0346042B00D196
:1036500006E09DF800000749C85400BF00E000BF25
:1036600000BF08BD8C000020280000202900002099
:10367000200000202400002008B5414800680068B0
:1036800000F0200060B100BF002000903C480068BE
:10369000006800903A4800684068009000BF6EE003
:1036A0003848006800F01000002868D000BF0020F3
:1036B0000090334800680068009031480068406816
:1036C000009000BF00BF30480068006800F4002090
:1036D00058BB2D480068006820F001002A4909689D
:1036E0000860294800684068C0F124002749088024
:1036F000242025490968486023480068006840F490
:1037000000202149096808601F480068006840F0EF
:1037100001001D49096808601C48008812282ED144
:103720001B491C4800F0C8FB29E0174800680068E6
:1037300020F00100144909680860134800684068D7
:10374000C0F124001149088024200F49096848600D
:103750001148806A20F400200F4988620A480068F6
:10376000006840F0010008490968086007480088BF
:10377000122804D106490748243000F09DFB08BDFB
:10378000CC00002000480040CC0200204400002073
:10379000440500205A0500200060024008B5114889
:1037A0000068006800F0200050B10E4800684068D2
:1037B000C0B200904FF480610B48FDF7CBFB10E0E6
:1037C00008480068006800F0100050B10548006823
:1037D0004068C0B2009000224FF480610248FDF7BB
:1037E000C2FB08BD0C010020001C024000BFFEE728
:1037F00002480068C0F30220704700000CED00E0B2
:1038000010B5002804DB0A07130E054A135406E01E
:103810000A07140E034A00F00F031B1FD45410BDF7
:1038200000E400E018ED00E070B500250024FCF78E
:1038300001FF8020FDF73EF85520FDF73BF85520AD
:10384000FDF738F80546FCF7EBFE9620FCF720FF65
:10385000FCF7F0FE8020FDF72DF85520FDF72AF843
:103860005520FDF727F80546FCF7DAFE9620FCF711
:103870000FFFFCF7DFFEB6217E20FDF72BF8FCF7EB
:10388000CFFE5020FCF7F7FEFCF7D4FE8020FDF7BA
:1038900011F85520FDF70EF85520FDF70BF80546F9
:1038A000FCF7BEFE9620FCF7F3FEFCF7C3FE80207B
:1038B000FDF700F85520FCF7FDFF5520FCF7FAFF57
:1038C0000546FCF7ADFE9620FCF7E2FE1E2D01D06A
:1038D000FF2070BD002434E0FCF7ACFE04EB440292
:1038E0001A4B1A44517804EB4402985CFCF7F2FF3F
:1038F000FCF796FE9620FCF7CBFEFCF79BFE04EB54
:103900004401124A515C41F08000FCF7D3FF55207E
:10391000FCF7D0FF5520FCF7CDFF0546FCF780FEF5
:103920009620FCF7B5FE04EB4400084908444078B3
:10393000A84204D004EB440008448078C9E7601C26
:10394000C4B2062CC8DB0020C3E7000050000020F2
:1039500038B5002400200090FCF782FE6946002064
:10396000FCF79BFFFCF772FE9620FCF791FEFCF73C
:1039700077FE69460020FCF790FFFCF767FE962073
:10398000FCF786FEFCF76CFEB6211420FCF7A2FFC4
:10399000FCF75CFE5020FCF76EFEFCF761FE69460A
:1039A0000020FCF77AFFFCF751FE9620FCF770FE32
:1039B000FCF756FE69460020FCF76FFFFCF746FE59
:1039C0009620FCF765FE9DF800000F2801D0FF202F
:1039D00038BD00242FE0FCF743FE04EB4402184BF3
:1039E0001A44517804EB4402985CFCF773FFFCF72F
:1039F0002DFE9620FCF74CFEFCF732FE04EB440152
:103A00000F4A505C6946FCF748FFFCF71FFE962002
:103A1000FCF73EFE04EB44000949084440789DF859
:103A20000010884205D004EB440005490844807822
:103A3000CEE7601CC4B2062CCDDB0020C8E7000036
:103A40006200002010B52DED028BB0EE408AB5EE7D
:103A5000C08AF1EE10FA08DB18EE100A01F0BCFC87
:103A600041EC100BBDEC028B10BDBFEE000A28EE3E
:103A7000000A10EE101A084601F0AEFC41EC100BE3
:103A8000F0E700000146DFED1A0AB2EE041A40EE3C
:103A9000010AFCEEE00A10EE902A90B20A2290FB96
:103AA000F2F302FB130230320A710A2290FBF2F2A7
:103AB00090B20A2290FBF2F302FB13023032CA707A
:103AC0000A2290FBF2F290B20A2290FBF2F302FB80
:103AD000130230328A700A2290FBF2F290B20A226C
:103AE00090FBF2F302FB130230324A707047000081
:103AF00000007A4400487047440500200146002039
:103B000001E0421CD0B20A5C002AFAD170470000E2
:103B10002DED068B9CB0FDF73FFAFFF721F9FEF77C
:103B200073FEFEF73DFEFEF7CBFEFEF7E1FFFFF76B
:103B300019F8FEF7F9FFA9480068C06840F02000B6
:103B4000A6490968C86000F0ADF9FFF7D3FFA449A2
:103B5000086000224FF48051A248FDF704FA0022C9
:103B60004FF400619F48FDF7FEF900224FF4806199
:103B70009C48FDF7F8F9FEF7FDFE9B48FEF740F97B
:103B800000219948FEF7F8FB04219748FEF7F4FB63
:103B9000FEF776FF9548FEF748F99448FEF730F9AE
:103BA000FEF7B2FE08E0012211038E48FDF7DBF9B3
:103BB0004FF4FA60FDF7BAF8FCF78FFD0028F2D158
:103BC0000122D1028748FDF7CEF906E11220FDF768
:103BD000ADF883480068857A854A86498648FCF7AF
:103BE0008BFD032D7ED1FCF7FBFE0646324683A1FA
:103BF00003A8FCF7B5FB6423052281A17748FEF7F3
:103C000061FD64231A4603A97448FEF75BFD642333
:103C100002227DA17148FEF755FD71490968C988E6
:103C2000642211FB02F001F09CF99FED780B53EC3C
:103C3000102B01F0E9F99FED770B53EC102B01F0FD
:103C400009F800F021FF754908606549096809888D
:103C5000642211FB02F001F084F99FED6C0B53EC30
:103C6000102B01F0D1F99FED6B0B53EC102B00F0F2
:103C7000F1FF00F009FF6A490860684890ED000A0A
:103C80006848FFF7FFFE664890ED000A6648FFF7B8
:103C9000F9FE00BF002000900190029001240BE08B
:103CA0006048015D601E0DF800105F48015DE01C7A
:103CB0000DF80010601CC4B2052CF1DB642308224F
:103CC00069464648FEF7FEFC584890ED001ADFEDC5
:103CD000580A524890ED000A00F022FC554890ED39
:103CE000001A00E007E0DFED540A4D4890ED000AAD
:103CF00000F050F970E0022D44D139490968C988B3
:103D0000642211FB02F001F02CF99FED400B53EC03
:103D1000102B01F079F99FED3F0B53EC102B00F0C5
:103D200099FF00F0B1FE3D4908602D4909680988F6
:103D3000642211FB02F001F014F99FED340B53ECF7
:103D4000102B01F061F99FED330B53EC102B00F0B9
:103D500081FF00F099FE32490860344890ED001A66
:103D6000DFED360A2D4890ED000A00F0D9FB31480E
:103D700090ED001ADFED300A294890ED000A00F0BE
:103D800009F929E02E48FFF7B9FE042805D12C488F
:103D900000F05AF8214880ED000A2A48FFF7AEFEED
:103DA000042805D1274800F04FF81D4880ED000A8F
:103DB0001E4890ED001ADFED200A184890ED000A29
:103DC00000F0AEFB1B4890ED001ADFED1B0A144813
:103DD00090ED000A00F0DEF800BFF7E68C0000204E
:103DE00000000020001C02402C030020AC03002037
:103DF00030000020800000207400002025640000B6
:103E000074696D65000000000A00000000000000F9
:103E10000000F03F0000000000A0844004000020EB
:103E200008000020140000201A0000200C000020D0
:103E30009A99193F100000209A99993E3333733FA5
:103E400020000020240000200146DFED130AB0EE20
:103E5000600A002000BF10E00A5C00EE902AF8EE35
:103E6000600AB2EE041A40EE010A9FED0C1A70EEE1
:103E7000C10AB0EE600A421CD0B20428ECDBDFEDD0
:103E8000080A70EE600AB0EE600AF2EE040A80EEF4
:103E9000201AB0EE410A70470000000000004042C6
:103EA00000007A4410B524220249A1F12400FEF753
:103EB00079FE10BD7E05002000B101B9704702787F
:103EC000437842EA0322C2F30A020A804278D210FF
:103ED000837842EA4312C2F30A024A80827892113E
:103EE000C37842EA8302037942EA8322C2F30A02D8
:103EF0008A8002795210437942EAC312C2F30A025D
:103F0000CA804279C2F301128A724279121193086F
:103F1000CB728279C37942EA032212B28A81027A91
:103F2000437A42EA032213B201F10C02CB81827A76
:103F3000C37A42EA032213B201F10C020B82037B23
:103F40008B74437BCB74827BC37B42EA03228A82DD
:103F5000027C437C42EA032212B20A810A88A2F55B
:103F6000806212B20A804A88A2F5806212B24A8048
:103F70008A88A2F5806212B28A80CA88A2F580621D
:103F800012B2CA800A89A2F5806212B20A8100BF09
:103F900094E7000030B52DED040B2DED108B8BB0A8
:103FA000B0EE608AF0EE418A9DED1B0AFFF74AFDF4
:103FB000B0EE409AF0EE609A9FEDF70B53EC102BA9
:103FC00051EC190B00F0E4FF57D2B2EE040A28EED0
:103FD000800A10EE101A084601F0FEF941EC1A0BA7
:103FE00018EE100A01F0F8F941EC1F0B9DED1B0AC9
:103FF000FFF728FD8DED040B9DED1B0A00F07EFA06
:10400000054600F0AEFF41EC1E0B9DED040B53EC9A
:10401000102B00F0F9FF9FEDE20B53EC102BCDE9D4
:1040200006019DED060B51EC100B00F0EDFF9FED2E
:10403000DE0B53EC102BCDE908019DED080B51EC84
:10404000100B00F0E1FF41EC1D0B53EC1F2B00F0B7
:10405000DBFF41EC1C0B9FEDD60B53EC102B00F05B
:1040600045FD41EC1B0B53EC1A2B00F03FFD41ECDE
:10407000190B00F047FF04462FE29DED1B0AFFF7E6
:10408000E1FCB0EE409AF0EE609A9FEDCB0B53EC62
:10409000102B51EC190B00F07BFF72D2B2EE040A28
:1040A00028EE800A10EE101A084601F095F941EC4E
:1040B000190B18EE100A01F08FF941EC1C0B9DED65
:1040C0001B0AFFF7BFFC8DED000B9FEDB30B53EC0C
:1040D000102B9DED000B51EC100B01F093F89FEDB0
:1040E000B80B53EC102BCDE902019DED020B51EC06
:1040F000100B00F089FF9FEDAC0B53EC102BCDE9BA
:1041000004019DED040B51EC100B00F0EFFC41ECB1
:104110001F0B9DED1B0A00F0F1F9054600F021FF91
:1041200053EC1F2BCDE906019DED060B51EC100B56
:1041300000F06AFF41EC1E0B9FED9B0B53EC102B24
:1041400000F062FF41EC1D0B53EC1C2B00F05CFFF8
:1041500041EC1B0B9FED960B53EC102B00F0C6FCB3
:1041600041EC1A0B53EC192B00F0C0FCCDE908010F
:104170009DED080B51EC100B00F0C4FE0446ACE1C1
:10418000FFE79DED1B0AFFF75DFCB0EE409AF0EEF5
:10419000609A9FED8D0B53EC102B51EC190B00F036
:1041A000F7FE72D2B2EE040A28EE800A10EE101A60
:1041B000084601F011F9CDE9060118EE100A01F0E8
:1041C0000BF9CDE900019DED1B0AFFF73BFCB0EEBA
:1041D00040FAF0EE60FA9FED780B53EC102B51ECA7
:1041E0001F0B01F00FF841EC1E0B9FED790B53EC08
:1041F000102B00F009FF41EC1D0B9FED770B53ECEA
:10420000102B00F073FC41EC1B0B9DED1B0A00F022
:1042100075F9054600F0A5FE41EC1C0B53EC1B2B79
:1042200000F0F2FE41EC1A0B9FED5F0B53EC102BEC
:1042300000F0EAFE41EC190B9DED000B53EC102B46
:1042400000F0E2FE9FED5A0B53EC102BCDE902017A
:104250009DED020B51EC100B00F048FCCDE9040180
:104260009DED060B53EC102B9DED040B51EC100B48
:1042700000F03CFCCDE908019DED080B51EC100B62
:1042800000F040FE044628E1FFE79DED1B0AFFF722
:10429000D9FBB0EE409AF0EE609A9FED510B53ECD3
:1042A000102B51EC190B00F073FE73D2B2EE040A1E
:1042B00028EE800A10EE101A084601F08DF841EC45
:1042C000190B18EE100A01F087F841EC1B0B9DED5D
:1042D0001B0AFFF7B7FBB0EE40EAF0EE60EA9FED95
:1042E0003A0B53EC102B51EC1E0B00F08BFF41EC02
:1042F0001D0B9FED3D0B53EC102B00F085FE41ECA8
:104300001C0B9FED3B0B53EC102B00F0EFFBCDE9AA
:1043100002019DED1B0A00F0F1F8054600F021FEB8
:10432000CDE900019DED020B53EC102B9DED000B30
:1043300051EC100B00F068FE9FED1B0B53EC102BA3
:10434000CDE904019DED040B51EC100B00F05CFE77
:1043500053EC1B2BCDE906019DED060B51EC100B28
:1043600000F052FE41EC1A0B9FED110B53EC102B99
:1043700000F0BCFB53EC192BCDE908019DED080BB7
:1043800051EC100B00F0B2FB41EC1F0B00F0BAFD3A
:104390000446A2E030E000000000000000003440CD
:1043A000000000000000E03F00000000000024408A
:1043B0000000000000709740000000000000444032
:1043C000666666666666E63F0000000000004E40D6
:1043D000000000000000F03F000000000000384036
:1043E0000000000000005440CDCCCCCCCCCCF43F3D
:1043F0000000000000004640B2EE040A28EE800AE9
:1044000010EE101A084600F0E7FF41EC190B18EE09
:10441000100A00F0E1FF41EC1C0B9DED1B0AFFF7B9
:1044200011FB8DED000B1FED120B53EC102B9DEDCE
:10443000000B51EC100B00F0E5FE9FED2B0B53EC45
:10444000102BCDE902019DED020B51EC100B00F099
:10445000DBFD9FED270B53EC102BCDE904019DED07
:10446000040B51EC100B00F041FB41EC1F0B9DEDD8
:104470001B0A00F043F8054600F073FD53EC1F2BB8
:10448000CDE906019DED060B51EC100B00F0BCFDD3
:1044900041EC1E0B1FED3C0B53EC102B00F0B4FD58
:1044A00041EC1D0B53EC1C2B00F0AEFD41EC1B0B43
:1044B0001FED410B53EC102B00F018FB41EC1A0BD5
:1044C00053EC192B00F012FBCDE908019DED080B10
:1044D00051EC100B00F016FD0446074800684463D9
:1044E0000BB0BDEC108B3FBD000000000000F83F9A
:1044F00000000000008051402C030020B5EEC00AEF
:10450000F1EE10FA01DD01207047B5EEC00AF1EEC0
:1045100010FA02D24FF0FF30F6E70020F4E7000077
:1045200030B52DED040B2DED108B8BB0B0EE608A05
:10453000F0EE418A9DED1B0AFFF784FAB0EE409A37
:10454000F0EE609A9FEDF70B53EC102B51EC190B2A
:1045500000F01EFD57D2B2EE040A28EE800A10EEDB
:10456000101A084600F038FF41EC1A0B18EE100A3A
:1045700000F032FF41EC1F0B9DED1B0AFFF762FAC2
:104580008DED040B9DED1B0AFFF7B8FF054600F00B
:10459000E8FC41EC1E0B9DED040B53EC102B00F0DE
:1045A00033FD9FEDE20B53EC102BCDE906019DEDA1
:1045B000060B51EC100B00F027FD9FEDDE0B53ECCA
:1045C000102BCDE908019DED080B51EC100B00F00C
:1045D0001BFD41EC1D0B53EC1F2B00F015FD41ECB6
:1045E0001C0B9FEDD60B53EC102B00F07FFA41EC27
:1045F0001B0B53EC1A2B00F079FA41EC190B00F06D
:1046000081FC04462FE29DED1B0AFFF71BFAB0EE7A
:10461000409AF0EE609A9FEDCB0B53EC102B51ECCF
:10462000190B00F0B5FC72D2B2EE040A28EE800A33
:1046300010EE101A084600F0CFFE41EC190B18EEF0
:10464000100A00F0C9FE41EC1C0B9DED1B0AFFF7A0
:10465000F9F98DED000B9FEDB30B53EC102B9DED95
:10466000000B51EC100B00F0CDFD9FEDB80B53EC9F
:10467000102BCDE902019DED020B51EC100B00F067
:10468000C3FC9FEDAC0B53EC102BCDE904019DED69
:10469000040B51EC100B00F029FA41EC1F0B9DEDBF
:1046A0001B0AFFF72BFF054600F05BFC53EC1F2BAA
:1046B000CDE906019DED060B51EC100B00F0A4FCBA
:1046C00041EC1E0B9FED9B0B53EC102B00F09CFC60
:1046D00041EC1D0B53EC1C2B00F096FC41EC1B0B2A
:1046E0009FED960B53EC102B00F000FA41EC1A0BE7
:1046F00053EC192B00F0FAF9CDE908019DED080BF8
:1047000051EC100B00F0FEFB0446ACE1FFE79DED21
:104710001B0AFFF797F9B0EE409AF0EE609A9FED12
:104720008D0B53EC102B51EC190B00F031FC72D2B5
:10473000B2EE040A28EE800A10EE101A084600F0C5
:104740004BFECDE9060118EE100A00F045FECDE95A
:1047500000019DED1B0AFFF775F9B0EE40FAF0EE8F
:1047600060FA9FED780B53EC102B51EC1F0B00F00F
:1047700049FD41EC1E0B9FED790B53EC102B00F023
:1047800043FC41EC1D0B9FED770B53EC102B00F01D
:10479000ADF941EC1B0B9DED1B0AFFF7AFFE054683
:1047A00000F0DFFB41EC1C0B53EC1B2B00F02CFC4E
:1047B00041EC1A0B9FED5F0B53EC102B00F024FC27
:1047C00041EC190B9DED000B53EC102B00F01CFC81
:1047D0009FED5A0B53EC102BCDE902019DED020B1E
:1047E00051EC100B00F082F9CDE904019DED060BB0
:1047F00053EC102B9DED040B51EC100B00F076F9EF
:10480000CDE908019DED080B51EC100B00F07AFB8F
:10481000044628E1FFE79DED1B0AFFF713F9B0EE10
:10482000409AF0EE609A9FED510B53EC102B51EC37
:10483000190B00F0ADFB73D2B2EE040A28EE800A29
:1048400010EE101A084600F0C7FD41EC190B18EEE7
:10485000100A00F0C1FD41EC1B0B9DED1B0AFFF798
:10486000F1F8B0EE40EAF0EE60EA9FED3A0B53EC5F
:10487000102B51EC1E0B00F0C5FC41EC1D0B9FED05
:104880003D0B53EC102B00F0BFFB41EC1C0B9FEDDC
:104890003B0B53EC102B00F029F9CDE902019DED03
:1048A0001B0AFFF72BFE054600F05BFBCDE900017C
:1048B0009DED020B53EC102B9DED000B51EC100BFA
:1048C00000F0A2FB9FED1B0B53EC102BCDE9040174
:1048D0009DED040B51EC100B00F096FB53EC1B2BE1
:1048E000CDE906019DED060B51EC100B00F08CFBA1
:1048F00041EC1A0B9FED110B53EC102B00F0F6F866
:1049000053EC192BCDE908019DED080B51EC100B70
:1049100000F0ECF841EC1F0B00F0F4FA0446A2E0C2
:1049200030E0000000000000000034400000000003
:104930000000E03F000000000000244000000000F4
:104940000070974000000000000044406666666604
:104950006666E63F0000000000004E4000000000D8
:104960000000F03F000000000000384000000000A0
:1049700000005440CDCCCCCCCCCCF43F00000000A7
:1049800000004640B2EE040A28EE800A10EE101A2B
:10499000084600F021FD41EC190B18EE100A00F05A
:1049A0001BFD41EC1C0B9DED1B0AFFF74BF88DED39
:1049B000000B1FED120B53EC102B9DED000B51EC77
:1049C000100B00F01FFC9FED2B0B53EC102BCDE9CF
:1049D00002019DED020B51EC100B00F015FB9FED59
:1049E000270B53EC102BCDE904019DED040B51EC8A
:1049F000100B00F07BF841EC1F0B9DED1B0AFFF73D
:104A00007DFD054600F0ADFA53EC1F2BCDE9060104
:104A10009DED060B51EC100B00F0F6FA41EC1E0B6D
:104A20001FED3C0B53EC102B00F0EEFA41EC1D0B8C
:104A300053EC1C2B00F0E8FA41EC1B0B1FED410B73
:104A400053EC102B00F052F841EC1A0B53EC192BDD
:104A500000F04CF8CDE908019DED080B51EC100B6E
:104A600000F050FA04460748006884630BB0BDECC0
:104A7000108B3FBD000000000000F83F0000000068
:104A8000008051402C03002021F00042A2F160522E
:104A9000B2F5801F01F0004328BFD2F17F6C0BD923
:104AA0005FEA001C43EAC20242EB507018BF704735
:104AB00028BF20F001007047B2F5801FBCBF184628
:104AC00070474FEA410C1CF5001F02D2084600F067
:104AD000F9BC70B500F042FB00000089FFF7F6BF9B
:104AE0004FF00040A0F580007047000010B591EA3B
:104AF000030F48BF83F0004300F18C83841A71EBED
:104B0000030C05D2121943EB0C03001B61EB0C01E3
:104B1000DFF824E14FEA1154A4EB135C1EEA430FC3
:104B200018BF9EEA445F73D023EA0E03DCF1200E27
:104B300021EA045143F4801332D322FA0CFE10EB25
:104B40000E0023FA0CFE41EB0E01CCF1200E03FA0D
:104B50000EFE10EB0E0051F10001B1F5801FCCF1FB
:104B6000200E32D201EB045112FA0EF2BDE81040D1
:104B700058BF7047401C38BF5FEA420218BF7047F9
:104B8000002814BF20F0010041F100014FEA410369
:104B900013F5001F38BF7047A1F1C04100F02CBBD6
:104BA000012A43EB0302ACF1200CDCF11F0E32BFF3
:104BB0004FF0000E23FA0CF310EB030041EB04510D
:104BC000B4EB115FD0D0A1EB045101F5801149087D
:104BD0005FEA300001EB04510ED350F1000038BF02
:104BE00012FA0EFE08D1BDE81040C9E7401C38BFDC
:104BF0005FEA4202CAD1C3E7BDE810404FEA410371
:104C000013F5001F38BF7047A1F1C04100F0F4BA9E
:104C10009EEA445F08D011EA5E0FBDE8104004BF71
:104C200001F0004100207047BDE8104070B500F071
:104C300095FA00BF64FBBE3E0000E0FF491058BF7C
:104C4000C1F140415B1058BFC3F140438B42EFF3C9
:104C5000008070472DE9C04130B4DFF8A0C23CEAC3
:104C6000111418BF3CEA131400F0EC8081EA03052C
:104C70001CEA111444EAD57418BF1CEA131500F09D
:104C8000C780A4EB05044FF0004545EAC12145EA81
:104C9000C32341EA505143EA525304F17F749942CD
:104CA00004F500344FEAC0204FEAC22208BF904208
:104CB00000F09C804FEA13650FF24016765D4FEAD4
:104CC000134506FB05F7C7F1807706FB07F74FEAA8
:104CD000D737A7FB03687642C8F58038A7FB06CE16
:104CE00038BFA8F1010807FB08E64FF0000EA6FB4D
:104CF000028CE6FB03CEDCF1000CCEF1004E38BF97
:104D0000AEF1010EA6FB0C584FF000074FF0000566
:104D1000E6FB0E87A1FB08C6A0FB07CE16EB0E062E
:104D200045F10005E1FB076515F1E04E7EBFA4F5F6
:104D300080345FEA46066D4116F1800745F10005B3
:104D40004FEA17274FEA066647EA0567A6F1DE46EF
:104D5000B6F1805F4FEA15251FD9384624F0010CC3
:104D600005EBC471BCF1FE6F01EB0C1102D8F0BC75
:104D7000BDE8008124425CBF01F5801E9EEAC47F2D
:104D800002D4F0BCBDE80081244238D4F0BCA1F1CB
:104D9000C041BDE8004100F02FBA4FEAD22242EAFA
:104DA00043524FEAD323A7FB02864FEAD02040EAC2
:104DB000415007FB03661EEA0E0F4FEAD12105FBA7
:104DC000026658BFA6EB0056B6EB00564FEA520EED
:104DD0004EEAC37E18EB0E0E56EB530EBDD518EB04
:104DE00002085E417F1C55F10005B6E74FF48015BF
:104DF0004FF000074FF000064FF00008ADE7F0BCA1
:104E00004FF0000001F1C04101F00041BDE8008118
:104E100011EA0C1F0CEA131500D00CE013EA0C1F6A
:104E200000F025804FF00000F0BC81EA030101F0A2
:104E30000041BDE80081F0BCBDE8004181EA03010A
:104E400000F0DAB9F0BCBDE8004170B500F086F9B9
:104E5000097EFC3E00F007B881EA03014FF0000034
:104E600001F00041704781EA030100F0C5B9F0BCD0
:104E7000BDE800414FF0000021497047FFFDFBF9FC
:104E8000F7F5F4F2F0EEEDEBE9E8E6E4E3E1E0DE7D
:104E9000DDDBDAD8D7D5D4D3D1D0CFCDCCCBCAC8EF
:104EA000C7C6C5C4C2C1C0BFBEBDBCBBBAB9B8B716
:104EB000B6B5B4B3B2B1B0AFAEADACABAAA9A8A809
:104EC000A7A6A5A4A3A3A2A1A09F9F9E9D9C9C9BD7
:104ED0009A99999897979695959493939291919082
:104EE0008F8F8E8E8D8C8C8B8B8A89898888878713
:104EF0008685858484838382828181800000FF0788
:104F00000000F87F4FEA41034FEA5353A3F5806353
:104F1000D3F11E03C8BFD3F1210C0CDD4FF00042CA
:104F200042EAC12242EA505232FA03FC8CEAE17CA6
:104F3000ACEBE1707047102BC4BF0020704703F545
:104F4000787CBCF1FF3F04D06FF0004282EA210080
:104F5000704770B500F002F9499224800020704734
:104F6000F2E710F0004248BF4042B0FA80F310FA76
:104F700003F10AD0C3F11D0303F580634FEA4150EA
:104F800002EB035202EBD12170474FF00000704753
:104F900051EA030C17D41CF5801F58BFBCF5801FC5
:104FA00000F10680994218BF704708BF90427047D1
:104FB00007D711F5801F58BF13F5801F19D49942E8
:104FC0007047894270471CF5801F08D5BCF5801FCB
:104FD000F7D58B4218BF704708BF824270474FF425
:104FE000001C1CEB410F38BF1CEB430F01D28B425E
:104FF000704770B500F0B2F8922449004FF00051AC
:105000004FF08053FFF71ABEDFF848C170B51CEAB5
:10501000111E1EBF1CEA13159EEA0C0F95EA0C0F19
:1050200000F06F8081EA030423EA4C134EEAD47E39
:1050300021EA4C1141F4801143F48013AE44A1FBEA
:10504000024CA0FB0365AEF17F7E361955EB0C05D3
:10505000A1FB034C4CF10003A0FB021C16EB0C0659
:10506000654153F10003094218BF46F0010613F4ED
:10507000007F0BD14FEA03314FEA0530340341EA98
:10508000155140EA16506FF003020AE04FEAC321BF
:105090004FEAC520F40241EA555140EA56506FF0FC
:1050A000020202EB2E4201EB025585EACE710AD0D4
:1050B0005FEA440C18BF24F0004450F1000041F1B5
:1050C000000120EAD47040F2FE7C624500D270BD3F
:1050D000A84214BF4FF080444FF04044002E08BF58
:1050E0000024BEF1806FA8BFA1F1C041BDE87040AF
:1050F00080F282804FF0000001F1C04101F00041D8
:1051000070479EEA0C0F0CEA131518BF95EA0C0FB6
:1051100006D04FF0000081EA030E0EF0004170BD92
:1051200000F01CF88900013E00F007B800F009B853
:105130004FEA430C5FEA5C5C08D081EA030100F0AF
:105140005BB84FEA410C5FEA5C5CF6D14FF00000BF
:10515000014970470000FF070000F87F0EF1020EC2
:105160002EF0030E5EF8046B364205D4012A43EBA1
:10517000030515F5001F12D8012841EB010C1CF5A1
:10518000001F0CD80ED14FEAD17C15F5001F0CEB97
:105190004C0C0CF1020C08BF4CEBD37C04E04FF03C
:1051A000080C01E04FEAD37C0CEB4C0526FA05F61F
:1051B00006F00706B6F1040C06D20EEB860CBDE82D
:1051C00070404CF0010C6047DFE80CF0090B020264
:1051D0004FF000414FF00000A1F5002170BD1946CD
:1051E0001046012851EB010418BFD4F5001484BF08
:1051F000002001F0004170BD0808A0F500114FEA41
:105200003101704710B591EA030F48BF83F00043A6
:105210003FF574AC841A71EB030C07D212198CF0B1
:10522000004C43EB0C03001B61EB0C01DFF8A4E125
:105230004FEA1154A4EB135C1EEA430F18BF9EEA19
:10524000445F00F0B08023EA6E03524221EA045129
:10525000C3EB6E0338BF5B1EDCF1200E25D322FAB0
:105260000CFE10EB0E0043FA0CFE41EB0E01CCF1EC
:10527000200E03FA0EFE10EB0E0051F10001CCF1EE
:10528000200E29D412FA0EF201EB0451BDE81040B1
:1052900058BF7047401C1CBFB2F1004F7047002838
:1052A0000CBF491C20F00100704712EB020E43EBCB
:1052B000030218BF4FF0010E4EEA4202ACF1200C7F
:1052C000DCF11E0E54D943FA0CFE10EB0E0051F126
:1052D000FF31CCF11E0ED5D50EF1010E12FA0EFEE5
:1052E000404141EB010101EB445C5FEA5C5C10D999
:1052F00010EBDE7001EB045138BFBEF1004FBDE88A
:10530000104018BF704700280CBF491C20F0010056
:10531000704730D24FEAD42C11F5001124F4006408
:105320001BD0B1FA81F20B3AA41AA41ED2F12003C9
:10533000914030FA03F31943904001EBCC71002CFB
:1053400001EB0451BDE81040A8BF704701F1C04116
:105350004FF0000001F000417047B0FA80F310FAFE
:1053600003F100D110BDE41A173C4805C90AE4E76F
:1053700001EB045110BD491001EB0451BDE8104090
:105380004FEA300002E04FF0000170474A0008BFCA
:105390000042F8D0B2F5001F28BF704701F000416D
:1053A0004FF0000070479EEA445F07D011EA5E0F9D
:1053B000BDE8104004BF002100207047BDE8104048
:1053C00070B5FFF7CBFE00BF40DFF63E83F0004133
:1053D000104670470000E0FF43004FEAD30C4FEA4D
:1053E0003C0C43401FBF40070CF1605113F0FE4FCF
:1053F00070471CF0006F03D100200CF00041704793
:105400000CF0004343EA507010B540EACC0000F0C5
:105410000EF800BF000000924FEA0001FFF7ECBE5B
:105420004FF000414FF00000A1F5002170470EF150
:10543000020E2EF0030E5EF8044B244204D44FEA11
:105440004102B2F17F4F11D84FEA4003B3F17F4FD1
:105450000CD80ED14FEAD07CB2F17F4F0CEB4C0C44
:105460000CF1020C08BF4CEBD17C04E04FF0080CAF
:1054700001E04FEAD17C0CEB4C0324FA03F404F076
:105480000704B4F1040C06D20EEB840CBDE8104006
:105490004CF0010C6047DFE80CF0070802024FF007
:1054A0000040A0F5800010BD0846420018BFD2F1B0
:1054B000807288BF00F0004010BD4FF04070E1EEF8
:1054C000100A7047FF2141EAD050C005704700061E
:1054D0001016000610160000000000000000010277
:1054E000030406070809000000000102030400008D
:1054F000105500080000002074000000C4010008DE
:105500008455000874000020940B0000E00100089E
:10551000000000000000000000000000000000008B
:105520000000C0C074303030300073303030300094
:10553000000000000000000000000000000000006B
:10554000000000000000000010000000010000004A
:105550000024F40000000000E7416B3A58A08B3AA9
:105560007D04017C000240AB03410005530806584E
:1055700004070F000810820911000A15800B16009D
:045580000C18010DF5
:040000050800018965
:00000001FF
